:1000000000000120D1180000F9180000FB180000C2
:10001000FD180000FF18000001190000000000009A
:1000200000000000000000000000000003190000B4
:100030000519000000000000071900000919000060
:10004000091800000B1900000B1900000B19000023
:100050000B1900000B1900000B1900000B19000010
:100060000B1900000B1900000B1900000B19000000
:100070000B1900000B1900000B1900000B190000F0
:100080000B1900000B1900000B1900000B190000E0
:10009000390D00000B1900000B1900000B190000AE
:1000A0000B1900000B1900000B1900000B190000C0
:1000B0000B1900000B1900000000000000000000F8
:1000C0000B1900000B1900000B1900000B190000A0
:1000D000750C00000B1900000B1900000000000057
:1000E0000000000000000000000000000000000010
:1000F0000000000000000000000000000000000000
:1001000000000000000000000000000000000000EF
:1001100000000000000000000000000000000000DF
:1004000010B5054C237833B9044B13B10448AFF34E
:1004100000800123237010BD740000200000000044
:10042000741A00000C4B43B10C480D4910B5AFF3E2
:1004300000800C48036823B910BD0A48036833B92B
:100440007047094B002BF7D0BDE810401847064B0A
:10045000002BF5D0184700BF00000000741A000000
:10046000780000207000002000000000134B002BDB
:1004700008BF114B9D46A3F5803A00218B460F46DD
:100480001148124A121A00F081F80D4B002B00D0CF
:1004900098470C4B002B00D0984700200021040007
:1004A0000D000B4800F016F800F048F82000290075
:1004B00000F0F6FA00F014F8000008000000012037
:1004C000000000000000000074000020480300202D
:1004D00009050000002301461A46184600F0A4B89A
:1004E00008B5074B044613B1002100F005F9054B90
:1004F0001868836A03B19847204600F077F900BF77
:10050000F9060000581A000038B50A4C0A4D641B61
:10051000A4100AD004F18043013B05EB8305013CA4
:1005200055F804399847002CF9D1BDE8384001F05E
:100530008DBA00BF700000206C00002070B50F4E17
:100540000F4D761BB61018BF002405D0013455F8A6
:10055000043B9847A642F9D10A4E0B4D761B01F099
:100560006FFAB61018BF002406D0013455F8043BCA
:100570009847A642F9D170BD70BD00BF6800002049
:10058000680000206C0000206800002070B486071E
:1005900046D0541E002A41D0CAB2034602E014F1EC
:1005A000FF343BD303F8012B9D07F8D1032C2ED940
:1005B000CDB245EA05250F2C45EA054519D903F1C9
:1005C00010022646103E0F2E42F8105C42F80C5CDA
:1005D00042F8085C42F8045C02F11002F2D8A4F17F
:1005E000100222F00F0204F00F041032032C134407
:1005F0000DD91E462246043A032A46F8045BFAD86F
:10060000221F22F003020432134404F003042CB12D
:10061000C9B21C4403F8011B9C42FBD170BC70475B
:1006200014460346C2E700BF2DE9F0472E4F3C6851
:100630000546884691469A46002C37D066681F2E9C
:1006400012DD2A4B002B4AD08C20AFF300800446E9
:10065000002844D03B680360002338604360C0F842
:10066000883075BB012314E08DB1D4F8880030B315
:10067000D0F8007140F826900123B34000EB8602C9
:100680001F43022DC0F80071C2F880A008D0731C6F
:10069000354602356360002044F82580BDE8F087C8
:1006A000D0F804211343C0F80431F0E7104B114C8B
:1006B0003C60002BC2D01B68C4F88830BEE70B4BEF
:1006C0006BB14FF48470AFF3008040B100276668CF
:1006D000C0F80071C0F80471C4F88800CAE74FF090
:1006E000FF30BDE8F08700BF1C01002000000000C3
:1006F00000000000900000202DE9F04F83B00F466D
:100700000190384BD3F80090B9F1000F31D09B46DF
:10071000D9F80450D9F888806C1E11D4AD002E1D74
:100720004E44454447B3B8F1000F02D0EB6F9F42EF
:1007300022D0013C631CA5F10405A6F10406F1D109
:10074000294BB3B1D9F80430002B43D1D9F800308C
:100750007BB1CBF80030B8F1000F02D04046AFF3C8
:1007600000804846AFF30080DBF80090B9F1000F3D
:10077000CED103B0BDE8F08FD9F804303268013B28
:10078000A34216BF0023C9F804403360002AD0D02A
:10079000D9F804A0B8F1000F16D0D8F80011012341
:1007A000A3400B4210D0D8F804110B420ED155F8DB
:1007B000041C01989047D9F804309A45A1D1DBF880
:1007C00000304B45B5D09CE79047F4E755F8040C52
:1007D0009047F0E7CB46D9F80090B9F1000F97D1D8
:1007E000C7E700BF1C01002000000000FEE700BFBB
:1007F000F0B4984B1B78062B1BD0974AD2F8883060
:1008000043F47003C2F88830BFF34F8FBFF36F8F8C
:100810004FF01023D3F80022002AC0F2E980D3F869
:100820000432002BC0F2E4808C4B8D4A1A60F0BC7D
:1008300070478C4B1B681D07DFD18B4B1B6803F087
:10084000F003302B02D1894B894A1A60864B1B6812
:1008500003F0F002302A00F0BA8003F0E003402BEE
:1008600000F0B580804B1B6803F0F003302B00F0E4
:100870009E807D4B1B6803F0F002302A00F08380DD
:1008800003F0E003402B7ED0774B1B6803F0F003AE
:10089000302B6AD0744B1B6803F0F003302B4DD023
:1008A000714B1B6803F0F003502BA6D14FF0805220
:1008B000704BD2F80414C3F82015D2F80814C3F80A
:1008C0002415D2F80C14C3F82815D2F81014C3F864
:1008D0002C15D2F81414C3F83015D2F81814C3F834
:1008E0003415D2F81C14C3F84015D2F82014C3F8FC
:1008F0004415D2F82414C3F84815D2F82814C3F8C4
:100900004C15D2F82C14C3F85015D2F83014C3F893
:100910005415D2F83414C3F86015D2F83814C3F85B
:100920006415D2F83C14C3F86815D2F84014C3F823
:100930006C15D2F84424C3F870255EE7454B4E4948
:100940001B784E4D4E484F4A05270F600126002464
:100950003F21062B2E60046011607FF44EAF414BA7
:100960001B681B077FF449AF9AE73A4B464A1B784E
:100970000321062B11607FF440AF3A4B1B681A0726
:100980007FF43BAF86E7334B1B784FF0804200216A
:10099000062BC2F80C11C2F81011C2F838157FF4FA
:1009A0002CAF304B1B6819077FF427AF6CE7374A31
:1009B0002849D368097823F080730629D3607FF42F
:1009C0001CAF284B1B6818077FF417AF51E7304A5C
:1009D000204B12681B782F49C2F34232062B0A6063
:1009E0007FF40BAF1F4B1B681C077FF406AF39E782
:1009F000294B0122C3F80425D3F80024002AFBD098
:100A00004FF0102315222449C3F80022D1F80034F6
:100A1000002BFBD04FF0102215211F4BC2F80412FF
:100A2000D3F80024002AFBD000221B49C3F8042578
:100A3000D1F80034002BFBD0BFF34F8F0649174B82
:100A4000CA6802F4E0621343CB60BFF34F8F00BF6C
:100A5000FDE700BFE00F00F000ED00E064000020C3
:100A60000090D003E40F00F0E80F00F074C00740DE
:100A70000DF0ADBA00C0004010560040885600404E
:100A80001856004014560040A0050040F0ED00E06C
:100A9000440200103C05004000E001400400FA055B
:100AA00010B584B000F068FEC0B9002000F07CFEF4
:100AB000002318460F4A042100F0BCFBB8B90E4BC6
:100AC0000FCB8DE80F00684600F0E4FC60B94FF4EE
:100AD000F01000F027FD20B920BFFDE700F00EF870
:100AE000E3E700F00BF8F7E700F008F8EFE700F0B5
:100AF00005F8E4E720010020601A000000B585B089
:100B000000230390194601AA44F20100ADF8043015
:100B1000029300F003F805B05DF804FBBFF34F8FBC
:100B20000549064BCA6802F4E0621343CB60BFF389
:100B30004F8F00BFFDE700BF00ED00E00400FA05A5
:100B4000484B494830B401214FF4803410252F22FE
:100B5000C0F88450C3F848431046C3F808435960AE
:100B6000013800BF00BF00BF00BF00BF00BF00BF13
:100B700000BF00BF00BF00BF00BF00BF00BF00BF7D
:100B800000BF00BF00BF00BF00BF00BF00BF00BF6D
:100B900000BF00BF00BF00BF00BF00BF00BF00BF5D
:100BA00000BF00BF00BF00BF00BF00BF00BF00BF4D
:100BB00000BF00BF00BF00BF00BF00BF00BF00BF3D
:100BC00000BF00BF00BF00BF00BF00BF00BF00BF2D
:100BD00000BF00BF00BFC3D1244C99600023104662
:100BE0002360013800BF00BF00BF00BF00BF00BFCF
:100BF00000BF00BF00BF00BF00BF00BF00BF00BFFD
:100C000000BF00BF00BF00BF00BF00BF00BF00BFEC
:100C100000BF00BF00BF00BF00BF00BF00BF00BFDC
:100C200000BF00BF00BF00BF00BF00BF00BF00BFCC
:100C300000BF00BF00BF00BF00BF00BF00BF00BFBC
:100C400000BF00BF00BF00BF00BF00BF00BF00BFAC
:100C500000BF00BF00BF00BFC3D1054A137030BC46
:100C6000704700BF0040024000E100E0B4020020F5
:100C7000A50200202DE9F843274A284B0025C2F899
:100C80004051C2F84451C2F84851C2F84C51C2F820
:100C90000051C2F804511B681BB32149D2F8044526
:100CA0000A68204FA41A1A6824F07F44A242A8467A
:100CB00009D8197CDE69A41A1544A1B91EB13346BE
:100CC0001A68A242F5D91849184A0B7812789A4244
:100CD0001BD01749174A41F823504FF48013C2F82C
:100CE0000031BDE8F883D3F8149083F810803A6897
:100CF0009B69484619462AB190470028DED0FFF785
:100D0000FDFEDBE71846C847D8E7531CDBB2022BD1
:100D100008BF00230B70DCE700400240BC0200204B
:100D2000B4020020A0020020B1020020B002002086
:100D3000A802002000E100E02DE9F04FA64AA749F3
:100D400013780978A64889B000680090994200F0AD
:100D500032810133DBB2022B08BF00231370A14A9A
:100D600052F82380009B9E4A434423F07F43136044
:100D7000012301939C4B9D4A1B78079319469C4B7A
:100D800012681B6802939B4B06921B780393944B4B
:100D90004FF0000C1B680493964610468946E346C4
:100DA000CDF814C0644609F1FF395FFA89F9B9F149
:100DB000FF0F5DD002990FFA89F301EBC30511F81B
:100DC000333095F801A05345EDD003EB43016A6839
:100DD000AF7812F831600133DBB29F4208BF0023C5
:100DE000022E02EBC1020ED0032EECD10028EAD075
:100DF000C26904741046002AFAD195F801A09646FB
:100E00004FF0010CDFE756680028DCD0864201462F
:100E100001D112E01146CA69002AD4D09642F9D114
:100E20008E420BD0F7693668CF618FB13A68324491
:100E30003A6095F801A07046C5E70646C06950B112
:100E4000F7693668CF6186464FF0010C002FEDD16F
:100E500095F801A0B7E7684A4FF0010BC2F808B057
:100E600086460490DC46CDF814B0CDF80CB0D9E736
:100E7000059B002B40F0A480BBF1000F02D0584B23
:100E8000049A1A60BCF1000F02D0584BC3F800E07E
:100E9000019B002B40F0DA80069B1B1A18BF012330
:100EA000019300234E49DDF81CA00C6851490490C1
:100EB000097803914D490022D1F800B096461146B9
:100EC00002460AF1FF305FFA80FABAF1FF0F00F034
:100ED000AE80029800EBCA0000905BB35E68D3F866
:100EE00008901F46DB69454D301B20F07F40A8422B
:100EF00058D809EB00053D604FF001007960B960FA
:100F00003874F961002A00F08D801668AE4280F0D6
:100F10008180944603E00668AE4256D28446DCF8EF
:100F20001C00AD1B0028F6D13D60F861CCF81C70A8
:100F3000002BD3D1009D95F801902878471C81455E
:100F400000EB4006F8B2BCD095F802C06F6828707C
:100F5000844508BF297007EBC60817F8366008BF3C
:100F60000020012EEAD1D8F804703E7C002EE5D195
:100F7000B446D8F808607E60D8F80C90C7F808909E
:100F8000D8F81000F860D8F81400B8610398002869
:100F9000A9D06646301B194DC7F804C020F07F4029
:100FA000A842A6D9A61B26F07F464E4528D2A9EB1B
:100FB00006053D60A0E74FF00008CDF80480D9E6B3
:100FC0000C4B9DF80C201A7056E7761B06603D60AE
:100FD000F861CCF81C70ABE7B0020020B102002031
:100FE000B4020020A8020020B8020020BC020020A9
:100FF000C0020020A402002000400240FEFF7F004B
:101000004FF0010039607960B9603874F9614AB114
:1010100016680025751B1560BB46FA614FF0010E7E
:101020003A465AE7BB463A464FF0010E55E773463B
:101030000498002B40F0998090422BD1019B4BBB30
:10104000774A0023137009B0BDE8F08F754A00217C
:101050000B460C460D461268B0B10668464500F2D4
:10106000D780C7680560A8EB06083444C2693FB161
:101070000099C361214421F07F41876041600346AC
:10108000104601990028E8D100293FF40BAF6549CB
:101090000A6007E7002A00F0B8806349634ED1F880
:1010A00004553078D2F800E02B1B23F07F43033344
:1010B00000285ED09E452CBF04EB0E03E3185A496E
:1010C00023F07F43C1F84035D1F80425521B5B1B48
:1010D00022F07F4223F07F4303329A42B0D9D1F805
:1010E0000435C1F840352F20013800BF00BF00BFD4
:1010F00000BF00BF00BF00BF00BF00BF00BF00BFF8
:1011000000BF00BF00BF00BF00BF00BF00BF00BFE7
:1011100000BF00BF00BF00BF00BF00BF00BF00BFD7
:1011200000BF00BF00BF00BF00BF00BF00BF00BFC7
:1011300000BF00BF00BF00BF00BF00BF00BF00BFB7
:1011400000BF00BF00BF00BF00BF00BF00BF00BFA7
:1011500000BF00BF00BF00BF00BF00BF00BFC3D1C2
:10116000334B1022C3F804216AE72E4BC3F800B0BA
:1011700062E72F484FF48032C1F844231027C1F8AA
:1011800004230122C0F8847147602F200A600138CF
:1011900000BF00BF00BF00BF00BF00BF00BF00BF57
:1011A00000BF00BF00BF00BF00BF00BF00BF00BF47
:1011B00000BF00BF00BF00BF00BF00BF00BF00BF37
:1011C00000BF00BF00BF00BF00BF00BF00BF00BF27
:1011D00000BF00BF00BF00BF00BF00BF00BF00BF17
:1011E00000BF00BF00BF00BF00BF00BF00BF00BF07
:1011F00000BF00BF00BF00BF00BF00BF00BF00BFF7
:1012000000BF00BFC3D1327054E7FFF799FC17E766
:1012100009B104490A60A6EB0806066042E600BF71
:10122000A4020020BC02002000400240A5020020D1
:1012300000E100E02DE9F04112F0030502D00720A3
:10124000BDE8F081002A3DD00E4614469846074678
:10125000FFF776FC06EB460304F11801DB00CA1821
:101260001344A670A672A6746361194E194B1A48EE
:1012700061601A49E260C6F8008005601C60184A87
:10128000184BDFF86CE0184E2570032008704FF4FF
:101290008010C021657025726572257465748EF8A2
:1012A00000503570114CC3F8800183F81413186096
:1012B000C2F8087583F82413D2F804352360284651
:1012C000BDE8F081034B1A600720BDE8F08100BF44
:1012D000A0020020C0020020BC020020B8020020B2
:1012E0000040024000E100E0B1020020B402002012
:1012F000B0020020074B1B6823B12AB120B103685C
:10130000187C18B1082070470720704759745A613B
:10131000704700BFC0020020304B1B6823B118B1DA
:10132000042903D80720704708207047F0B54469A6
:10133000002C4DD0447C012C0CBF0E460026EFF350
:101340000584C4F3080494B1103C65B2002D38DB69
:1013500005F1604404F5614494F800436409E4B283
:10136000022C39D0062C0CBF0824102400E01024D5
:1013700023445C7893F802E01F78651CEDB2AE451B
:1013800008BF0025AF4225D004EB4404D3F804E0A5
:10139000E4001EEB04071DD04FF0010C0EF804C052
:1013A000DFF844E078600E4CDEF80405B8604FF4D6
:1013B000801EF9603E617A615D70C4F800E1002032
:1013C000F0BD084D04F00F0425442C7E6409C6E7E7
:1013D0000820F0BD0420F0BD0024C9E7C0020020B1
:1013E00000E100E0FCEC00E00040024072B6024A7E
:1013F0001368013313607047C4020020034A136866
:10140000013B136003B962B6704700BFC4020020FD
:1014100038B51D4A1368002B0DDD1C498988FF3B38
:101420001360C9B21A4800F09FF900B938BDBDE891
:101430003840FFF763BB1548437873B1447BC17BE9
:101440008388651AAB421ADB4369A1B2002481800C
:101450004470002BE4D00533E2E7847BC17B8388B2
:101460006518AB4207DC0369A1B201248180447096
:10147000002BD5D0EFE7591A89B28180D1E7194402
:1014800089B28180CDE700BF30030020E802002050
:1014900010030020F8B543780BB90720F8BD827817
:1014A0009A42FAD2C378002BF7D0C368002BF4D04D
:1014B000194D1A4F0446482200212846FFF766F8C6
:1014C0001022214605F10C0000F020FAE278A37802
:1014D000287BE1682877E668A96013440020AB8088
:1014E0002870FF232E620E4A6B77012605F11C013E
:1014F00005F128006F626E7000F090F80028CDD1E1
:10150000AE70A178E378194405F12800C9B2BDE8AE
:10151000F84000F029B900BFE8020020701A00006E
:10152000111400000146014800F0B0B8100300207B
:1015300010B5037D01220446027113BB836903B118
:101540009847E378A2789A4248D0002B35D1237887
:10155000002B56D04FF0A043E268C3F80C250023BF
:10156000A178637023790531012B21611ED1E369D4
:1015700022461868FFF7D0FEC0B1BDE81040FFF763
:10158000BDBA03789BB94FF0A043C268C3F80825E1
:10159000A178E378CB1A01FB03F10912002305318E
:1015A0002161637023752379012BE0D010BD4FF0CA
:1015B000A043C268C3F80C25EAE72278DAB14FF0FD
:1015C000A042E168C2F80815A17811FB03F10912E5
:1015D00001230531216163702375E4E72378B3B1FA
:1015E0004FF0A043E268C3F80825A1780123053134
:1015F00021616370D7E74FF0A042E168C2F80C1593
:10160000E2E74FF0A043E268C3F80825A7E74FF0F0
:10161000A043E268C3F80C25E7E700BF70B582611C
:101620000B784C6803704B6883604B68C3604B78E1
:10163000837005468868E861134A0021FFF75AFE67
:10164000D0B974B103464FF0A046032103F5E07210
:1016500014F0010F18BF46F82210640803F10103CB
:10166000F4D12B784BB94FF0A043EA68C3F80825B2
:10167000002201236A702B7170BD4FF0A043EA680D
:10168000C3F80C25F4E700BF3115000010B503784E
:10169000C16002220446027143BB4FF0A043C3F86D
:1016A0000815A269A16000230121637023752171CF
:1016B0000AB120469047E378A2789A4234D0D3B159
:1016C0002278002A43D04FF0A042E168C2F8081502
:1016D000A17811FB03F10912012305312161637027
:1016E00023752379012B15D0002010BD4FF0A043A6
:1016F000C3F80C15D5E723781BB34FF0A043E2687D
:10170000C3F80C250023A178637023790531012BE0
:101710002161E9D1E36922461868FFF7FDFD002841
:10172000E2D0FFF7EBF9DFE72378B3B14FF0A04346
:10173000E268C3F80825A1780123053121616370AF
:10174000CFE74FF0A043E268C3F80825DAE74FF08F
:10175000A042E168C2F80C15BAE74FF0A043E26876
:10176000C3F80C25E7E700BF83788B4226BFC17022
:1017700000200720704700BF70B50A4D2C7A0CB1CD
:10178000852070BD4FF0804301262C602046C3F8B1
:10179000186506216C602C61EC6000F071F82E7207
:1017A000204670BD3403002070B5144C82B005464D
:1017B0000020FFF71BFEA37A5BB115B16B68012017
:1017C0009847E36801330020E360FFF717FE02B09B
:1017D00070BD15B123692B602561E368002BF1D141
:1017E000074A08491360126801924FF080400225B1
:1017F0000122019EC0F804530A60E3E7340300208D
:10180000040100400800004010B51A4B1A6882B06D
:10181000A2B100221A601B6800934FF0804301229E
:10182000154C0099C3F808236368627233B10CCB7E
:101830000020626098476368002BF8D10F4B1A684C
:10184000AAB100221A601B6801934FF08043022264
:10185000094C0199C3F8082323690122A27233B10C
:101860000CCB0120226198472369002BF8D102B0EC
:1018700010BD00BF000100403403002004010040FF
:10188000002810B418DB00F1604303F561434901FF
:10189000C9B283F80013C3B24009800000F1604070
:1018A00000F5614003F01F0201239340C0F880312E
:1018B00003605DF8044B7047C3B2044A03F00F04A1
:1018C00049012244C9B21176E6E700BFFCEC00E012
:1018D0000649074A074B9B1A03DD043BC858D05002
:1018E000FBDCFEF785FFFEF7C1FD0000801A00005B
:1018F0000000002074000020FEE7FEE7FEE7FEE7A0
:10190000FEE7FEE7FEE7FEE7FEE7FEE7844641EA84
:10191000000313F003036DD1403A41D351F8043B67
:1019200040F8043B51F8043B40F8043B51F8043BB9
:1019300040F8043B51F8043B40F8043B51F8043BA9
:1019400040F8043B51F8043B40F8043B51F8043B99
:1019500040F8043B51F8043B40F8043B51F8043B89
:1019600040F8043B51F8043B40F8043B51F8043B79
:1019700040F8043B51F8043B40F8043B51F8043B69
:1019800040F8043B51F8043B40F8043B51F8043B59
:1019900040F8043B51F8043B40F8043B403ABDD2C8
:1019A000303211D351F8043B40F8043B51F8043B6A
:1019B00040F8043B51F8043B40F8043B51F8043B29
:1019C00040F8043B103AEDD20C3205D351F8043BF9
:1019D00040F8043B043AF9D2043208D0D2071CBFC5
:1019E00011F8013B00F8013B01D30B8803806046EE
:1019F000704700BF082A13D38B078DD010F0030364
:101A00008AD0C3F10403D21ADB071CBF11F8013BD3
:101A100000F8013B80D331F8023B20F8023B7BE722
:101A2000043AD9D3013A11F8013B00F8013BF9D24D
:101A30000B7803704B7843708B78837060467047E7
:101A4000F8B500BFF8BC08BC9E467047F8B500BFAB
:101A5000F8BC08BC9E46704704000020430000000C
:101A600000DC0005000001000000000000001E0076
:081A7000C80200200000000084
:081A7800F4E9FF7F010000000A
:101A80000400002000000000000000000000000032
:101A90000000000000000000000000000000000046
:101AA000000000005C1A00000000000000000000C0
:101AB0000000000000000000000000000000000026
:101AC0000000000000000000000000000000000016
:101AD0000000000000000000000000000000000006
:101AE000000000000090D003250400000104000065
:041AF00000000000F2
:04000003000018D110
:00000001FF
