:1000000000000120C9190000F1190000F3190000D7
:10001000F5190000F7190000F919000000000000B0
:10002000000000000000000000000000FB190000BC
:10003000FD19000000000000FF190000011A000077
:1000400001190000031A0000031A0000031A00003F
:10005000031A0000031A0000031A0000031A00002C
:10006000031A0000031A0000031A0000031A00001C
:10007000031A0000031A0000031A0000031A00000C
:10008000031A0000F10D0000031A0000031A00001B
:10009000B50E0000031A0000031A0000031A000046
:1000A000031A0000031A0000031A0000031A0000DC
:1000B000031A0000031A0000000000000000000006
:1000C000031A0000031A0000031A0000031A0000BC
:1000D000031A0000031A0000031A000000000000C9
:1000E0000000000000000000000000000000000010
:1000F0000000000000000000000000000000000000
:1001000000000000000000000000000000000000EF
:1001100000000000000000000000000000000000DF
:1004000010B5054C237833B9044B13B10448AFF34E
:1004100000800123237010BD740000200000000044
:10042000301A00000C4B43B10C480D4910B5AFF326
:1004300000800C48036823B910BD0A48036833B92B
:100440007047094B002BF7D0BDE810401847064B0A
:10045000002BF5D0184700BF00000000301A000044
:10046000780000207000002000000000134B002BDB
:1004700008BF114B9D46A3F5803A00218B460F46DD
:100480001148124A121A00F081F80D4B002B00D0CF
:1004900098470C4B002B00D0984700200021040007
:1004A0000D000B4800F016F800F048F82000290075
:1004B00000F0A6FB00F014F8000008000000012086
:1004C000000000000000000074000020A0030020D5
:1004D00009050000002301461A46184600F0A4B89A
:1004E00008B5074B044613B1002100F005F9054B90
:1004F0001868836A03B19847204600F077F900BF77
:10050000F90600001C1A000038B50A4C0A4D641B9D
:10051000A4100AD004F18043013B05EB8305013CA4
:1005200055F804399847002CF9D1BDE8384001F05E
:100530006FBA00BF700000206C00002070B50F4E35
:100540000F4D761BB61018BF002405D0013455F8A6
:10055000043B9847A642F9D10A4E0B4D761B01F099
:1005600051FAB61018BF002406D0013455F8043BE8
:100570009847A642F9D170BD70BD00BF6800002049
:10058000680000206C0000206800002070B486071E
:1005900046D0541E002A41D0CAB2034602E014F1EC
:1005A000FF343BD303F8012B9D07F8D1032C2ED940
:1005B000CDB245EA05250F2C45EA054519D903F1C9
:1005C00010022646103E0F2E42F8105C42F80C5CDA
:1005D00042F8085C42F8045C02F11002F2D8A4F17F
:1005E000100222F00F0204F00F041032032C134407
:1005F0000DD91E462246043A032A46F8045BFAD86F
:10060000221F22F003020432134404F003042CB12D
:10061000C9B21C4403F8011B9C42FBD170BC70475B
:1006200014460346C2E700BF2DE9F0472E4F3C6851
:100630000546884691469A46002C37D066681F2E9C
:1006400012DD2A4B002B4AD08C20AFF300800446E9
:10065000002844D03B680360002338604360C0F842
:10066000883075BB012314E08DB1D4F8880030B315
:10067000D0F8007140F826900123B34000EB8602C9
:100680001F43022DC0F80071C2F880A008D0731C6F
:10069000354602356360002044F82580BDE8F087C8
:1006A000D0F804211343C0F80431F0E7104B114C8B
:1006B0003C60002BC2D01B68C4F88830BEE70B4BEF
:1006C0006BB14FF48470AFF3008040B100276668CF
:1006D000C0F80071C0F80471C4F88800CAE74FF090
:1006E000FF30BDE8F08700BF1C01002000000000C3
:1006F00000000000900000202DE9F04F83B00F466D
:100700000190384BD3F80090B9F1000F31D09B46DF
:10071000D9F80450D9F888806C1E11D4AD002E1D74
:100720004E44454447B3B8F1000F02D0EB6F9F42EF
:1007300022D0013C631CA5F10405A6F10406F1D109
:10074000294BB3B1D9F80430002B43D1D9F800308C
:100750007BB1CBF80030B8F1000F02D04046AFF3C8
:1007600000804846AFF30080DBF80090B9F1000F3D
:10077000CED103B0BDE8F08FD9F804303268013B28
:10078000A34216BF0023C9F804403360002AD0D02A
:10079000D9F804A0B8F1000F16D0D8F80011012341
:1007A000A3400B4210D0D8F804110B420ED155F8DB
:1007B000041C01989047D9F804309A45A1D1DBF880
:1007C00000304B45B5D09CE79047F4E755F8040C52
:1007D0009047F0E7CB46D9F80090B9F1000F97D1D8
:1007E000C7E700BF1C01002000000000FEE700BFBB
:1007F000F0B4984B1B78062B1BD0974AD2F8883060
:1008000043F47003C2F88830BFF34F8FBFF36F8F8C
:100810004FF01023D3F80022002AC0F2E980D3F869
:100820000432002BC0F2E4808C4B8D4A1A60F0BC7D
:1008300070478C4B1B681D07DFD18B4B1B6803F087
:10084000F003302B02D1894B894A1A60864B1B6812
:1008500003F0F002302A00F0BA8003F0E003402BEE
:1008600000F0B580804B1B6803F0F003302B00F0E4
:100870009E807D4B1B6803F0F002302A00F08380DD
:1008800003F0E003402B7ED0774B1B6803F0F003AE
:10089000302B6AD0744B1B6803F0F003302B4DD023
:1008A000714B1B6803F0F003502BA6D14FF0805220
:1008B000704BD2F80414C3F82015D2F80814C3F80A
:1008C0002415D2F80C14C3F82815D2F81014C3F864
:1008D0002C15D2F81414C3F83015D2F81814C3F834
:1008E0003415D2F81C14C3F84015D2F82014C3F8FC
:1008F0004415D2F82414C3F84815D2F82814C3F8C4
:100900004C15D2F82C14C3F85015D2F83014C3F893
:100910005415D2F83414C3F86015D2F83814C3F85B
:100920006415D2F83C14C3F86815D2F84014C3F823
:100930006C15D2F84424C3F870255EE7454B4E4948
:100940001B784E4D4E484F4A05270F600126002464
:100950003F21062B2E60046011607FF44EAF414BA7
:100960001B681B077FF449AF9AE73A4B464A1B784E
:100970000321062B11607FF440AF3A4B1B681A0726
:100980007FF43BAF86E7334B1B784FF0804200216A
:10099000062BC2F80C11C2F81011C2F838157FF4FA
:1009A0002CAF304B1B6819077FF427AF6CE7374A31
:1009B0002849D368097823F080730629D3607FF42F
:1009C0001CAF284B1B6818077FF417AF51E7304A5C
:1009D000204B12681B782F49C2F34232062B0A6063
:1009E0007FF40BAF1F4B1B681C077FF406AF39E782
:1009F000294B0122C3F80425D3F80024002AFBD098
:100A00004FF0102315222449C3F80022D1F80034F6
:100A1000002BFBD04FF0102215211F4BC2F80412FF
:100A2000D3F80024002AFBD000221B49C3F8042578
:100A3000D1F80034002BFBD0BFF34F8F0649174B82
:100A4000CA6802F4E0621343CB60BFF34F8F00BF6C
:100A5000FDE700BFE00F00F000ED00E064000020C3
:100A60000090D003E40F00F0E80F00F074C00740DE
:100A70000DF0ADBA00C0004010560040885600404E
:100A80001856004014560040A0050040F0ED00E06C
:100A9000440200103C05004000E001400400FA055B
:100AA00010B58368B3F5003F024619D0B3F5802F27
:100AB00000D010BD0F4C238801339BB2B3F5C87F23
:100AC0002380F6D9D3789178C91AC9B200F07CFE98
:100AD000002323800028ECD0BDE8104000F0CCB803
:100AE000054C238801339BB2B3F5FA7F2380E9D804
:100AF00010BD00BFA2020020A002002070B584B08B
:100B00000026DC254FF40034364B374A37488DF841
:100B1000046001A98DF805500294039300F0AEFD26
:100B200000285BD11421314800F04EFE002852D13C
:100B30000021C8254FF480242D4B8DF804102A4A3B
:100B40002C488DF8055001A90294039300F096FDFE
:100B500000283DD19621274800F036FE002834D1E8
:100B6000002664254FF40024234B1F4A23488DF8A8
:100B7000046001A98DF805500294039300F07EFDF6
:100B800000BB14211D4800F01FFEC0B91748816842
:100B900000F0ACFD80B91748816800F0A7FD40B9AE
:100BA0001648816800F0A2FD08B100F065F804B0B5
:100BB00070BD00F061F8F3E700F05EF8EBE700F0DD
:100BC0005BF8E3E700F058F8DBE700F055F8C7E71B
:100BD00000F052F8BEE700F04FF8A9E700F04CF83B
:100BE000A0E700BF241A0000A10A0000A402002010
:100BF000281A0000C40200202C1A0000E402002081
:100C000038B500F035FE80BB002000F049FE00231F
:100C10001846174A042100F0CDFB18BB154CFFF70E
:100C20006DFF25460FE04FF4FA7000F0D5FDA17876
:100C3000E378C91AC9B2284600F0C6FD78B94FF466
:100C4000FA7000F0C9FDA178E378C91AC9B2284644
:100C500000F0BAFD0028E6D000F00EF8E3E700F05F
:100C60000BF8ECE700F008F8D8E700F005F8CBE760
:100C700020010020E402002000B585B0002303908D
:100C8000194601AA44F20100ADF80430029300F0C5
:100C900003F805B05DF804FBBFF34F8F0549064B21
:100CA000CA6802F4E0621343CB60BFF34F8F00BF0A
:100CB000FDE700BF00ED00E00400FA05484B49489D
:100CC00030B401214FF480344FF400352F22C0F8A6
:100CD0008050C3F848431046C3F8084359600138B0
:100CE00000BF00BF00BF00BF00BF00BF00BF00BF0C
:100CF00000BF00BF00BF00BF00BF00BF00BF00BFFC
:100D000000BF00BF00BF00BF00BF00BF00BF00BFEB
:100D100000BF00BF00BF00BF00BF00BF00BF00BFDB
:100D200000BF00BF00BF00BF00BF00BF00BF00BFCB
:100D300000BF00BF00BF00BF00BF00BF00BF00BFBB
:100D400000BF00BF00BF00BF00BF00BF00BF00BFAB
:100D500000BF00BFC3D1244C99600023104623601C
:100D6000013800BF00BF00BF00BF00BF00BF00BF11
:100D700000BF00BF00BF00BF00BF00BF00BF00BF7B
:100D800000BF00BF00BF00BF00BF00BF00BF00BF6B
:100D900000BF00BF00BF00BF00BF00BF00BF00BF5B
:100DA00000BF00BF00BF00BF00BF00BF00BF00BF4B
:100DB00000BF00BF00BF00BF00BF00BF00BF00BF3B
:100DC00000BF00BF00BF00BF00BF00BF00BF00BF2B
:100DD00000BF00BF00BFC3D1044A137030BC7047CE
:100DE0000010014000E100E07803002069030020CA
:100DF0002DE9F843274A284B0025C2F84051C2F894
:100E00004451C2F84851C2F84C51C2F80051C2F8DE
:100E100004511B681BB32149D2F804450A68204FCE
:100E2000A41A1A6824F07F44A242A84609D8197C63
:100E3000DE69A41A1544A1B91EB133461A68A2424C
:100E4000F5D91849184A0B7812789A421BD01749DD
:100E5000174A41F823504FF48013C2F80031BDE81F
:100E6000F883D3F8149083F810803A689B69484659
:100E700019462AB190470028DED0FFF7FDFEDBE7D8
:100E80001846C847D8E7531CDBB2022B08BF002323
:100E90000B70DCE700100140800300207803002085
:100EA0006403002075030020740300206C030020FD
:100EB00000E100E02DE9F04FA64AA7491378097830
:100EC000A64889B000680090994200F03281013351
:100ED000DBB2022B08BF00231370A14A52F8238013
:100EE000009B9E4A434423F07F43136001230193F8
:100EF0009C4B9D4A1B78079319469C4B12681B68B4
:100F000002939B4B06921B780393944B4FF0000C7B
:100F10001B680493964610468946E346CDF814C0F4
:100F2000644609F1FF395FFA89F9B9F1FF0F5DD025
:100F300002990FFA89F301EBC30511F8333095F8E4
:100F400001A05345EDD003EB43016A68AF7812F876
:100F500031600133DBB29F4208BF0023022E02EB57
:100F6000C1020ED0032EECD10028EAD0C26904746D
:100F70001046002AFAD195F801A096464FF0010CD0
:100F8000DFE756680028DCD08642014601D112E036
:100F90001146CA69002AD4D09642F9D18E420BD0AC
:100FA000F7693668CF618FB13A6832443A6095F894
:100FB00001A07046C5E70646C06950B1F7693668BA
:100FC000CF6186464FF0010C002FEDD195F801A0BE
:100FD000B7E7684A4FF0010BC2F808B086460490A4
:100FE000DC46CDF814B0CDF80CB0D9E7059B002B4A
:100FF00040F0A480BBF1000F02D0584B049A1A6055
:10100000BCF1000F02D0584BC3F800E0019B002B4D
:1010100040F0DA80069B1B1A18BF012301930023BE
:101020004E49DDF81CA00C685149049009780391E1
:101030004D490022D1F800B09646114602460AF109
:10104000FF305FFA80FABAF1FF0F00F0AE8002982D
:1010500000EBCA0000905BB35E68D3F808901F46AF
:10106000DB69454D301B20F07F40A84258D809EB82
:1010700000053D604FF001007960B9603874F96196
:10108000002A00F08D801668AE4280F08180944680
:1010900003E00668AE4256D28446DCF81C00AD1B65
:1010A0000028F6D13D60F861CCF81C70002BD3D13C
:1010B000009D95F801902878471C814500EB40067B
:1010C000F8B2BCD095F802C06F682870844508BF9C
:1010D000297007EBC60817F8366008BF0020012EFC
:1010E000EAD1D8F804703E7C002EE5D1B446D8F899
:1010F00008607E60D8F80C90C7F80890D8F8100007
:10110000F860D8F81400B86103980028A9D06646A2
:10111000301B194DC7F804C020F07F40A842A6D963
:10112000A61B26F07F464E4528D2A9EB06053D605A
:10113000A0E74FF00008CDF80480D9E60C4B9DF8ED
:101140000C201A7056E7761B06603D60F861CCF8FB
:101150001C70ABE7740300207503002078030020A7
:101160006C0300207C030020800300208403002007
:101170006803002000100140FEFF7F004FF00100D7
:1011800039607960B9603874F9614AB11668002530
:10119000751B1560BB46FA614FF0010E3A465AE7DF
:1011A000BB463A464FF0010E55E773460498002BB4
:1011B00040F09A8090422BD1019B4BBB784A002390
:1011C000137009B0BDE8F08F764A00210B460C463B
:1011D0000D461268B0B10668464500F2D980C7686E
:1011E0000560A8EB06083444C2693FB10099C361A9
:1011F000214421F07F4187604160034610460199F8
:101200000028E8D100293FF40BAF66490A6007E7E0
:10121000002A00F0BA806449644ED1F80455307851
:10122000D2F800E02B1B23F07F43033300285FD06C
:101230009E452CBF04EB0E03E3185B4923F07F436C
:10124000C1F84035D1F80425521B5B1B22F07F42C8
:1012500023F07F4303329A42B0D9D1F80435C1F864
:1012600040352F20013800BF00BF00BF00BF00BFC6
:1012700000BF00BF00BF00BF00BF00BF00BF00BF76
:1012800000BF00BF00BF00BF00BF00BF00BF00BF66
:1012900000BF00BF00BF00BF00BF00BF00BF00BF56
:1012A00000BF00BF00BF00BF00BF00BF00BF00BF46
:1012B00000BF00BF00BF00BF00BF00BF00BF00BF36
:1012C00000BF00BF00BF00BF00BF00BF00BF00BF26
:1012D00000BF00BF00BF00BF00BFC3D1344B4FF4FD
:1012E0000032C3F8002169E72E4BC3F800B061E774
:1012F0002F484FF48032C1F844234FF40037C1F82F
:1013000004230122C0F8807107602F200A60013891
:1013100000BF00BF00BF00BF00BF00BF00BF00BFD5
:1013200000BF00BF00BF00BF00BF00BF00BF00BFC5
:1013300000BF00BF00BF00BF00BF00BF00BF00BFB5
:1013400000BF00BF00BF00BF00BF00BF00BF00BFA5
:1013500000BF00BF00BF00BF00BF00BF00BF00BF95
:1013600000BF00BF00BF00BF00BF00BF00BF00BF85
:1013700000BF00BF00BF00BF00BF00BF00BF00BF75
:1013800000BF00BFC3D1327052E7FFF797FC15E7EB
:1013900009B104490A60A6EB0806066040E600BFF2
:1013A0006803002080030020001001406903002032
:1013B00000E100E02DE9F04112F0030502D0072022
:1013C000BDE8F081002A3DD00E46144698460746F7
:1013D000FFF774FC06EB460304F11801DB00CA18A2
:1013E0001344A670A672A6746361194E194B1A486D
:1013F00061601A49E260C6F8008005601C60184A06
:10140000184BDFF86CE0184E2570032008704FF47D
:101410008010C021657025726572257465748EF820
:1014200000503570114CC3F8800183F81413186014
:10143000C2F8087583F81113D2F8043523602846E2
:10144000BDE8F081034B1A600720BDE8F08100BFC2
:101450006403002084030020800300207C0300201C
:101460000010014000E100E0750300207803002037
:1014700074030020074B1B6823B12AB120B1036815
:10148000187C18B1082070470720704759745A61BA
:10149000704700BF84030020304B1B6823B118B194
:1014A000042903D80720704708207047F0B5446925
:1014B000002C4DD0447C012C0CBF0E460026EFF3CF
:1014C0000584C4F3080494B1103C65B2002D38DBE8
:1014D00005F1604404F5614494F800436409E4B202
:1014E000022C39D0062C0CBF0824102400E0102454
:1014F00023445C7893F802E01F78651CEDB2AE459A
:1015000008BF0025AF4225D004EB4404D3F804E023
:10151000E4001EEB04071DD04FF0010C0EF804C0D0
:10152000DFF844E078600E4CDEF80405B8604FF454
:10153000801EF9603E617A615D70C4F800E10020B0
:10154000F0BD084D04F00F0425442C7E6409C6E765
:101550000820F0BD0420F0BD0024C9E7840300206A
:1015600000E100E0FCEC00E00010014072B6024A2D
:10157000136801331360704788030020034A13681F
:10158000013B136003B962B6704700BF88030020B7
:1015900010B5037D01220446027113BB836903B1B8
:1015A0009847E378A2789A4248D0002B35D1237827
:1015B000002B56D04FF0A043E268C3F80C2500235F
:1015C000A178637023790531012B21611ED1E36974
:1015D00022461868FFF760FFC0B1BDE81040FFF772
:1015E0004BBB03789BB94FF0A043C268C3F80825F2
:1015F000A178E378CB1A01FB03F10912002305312E
:101600002161637023752379012BE0D010BD4FF069
:10161000A043C268C3F80C25EAE72278DAB14FF09C
:10162000A042E168C2F80815A17811FB03F1091284
:1016300001230531216163702375E4E72378B3B199
:101640004FF0A043E268C3F80825A17801230531D3
:1016500021616370D7E74FF0A042E168C2F80C1532
:10166000E2E74FF0A043E268C3F80825A7E74FF090
:10167000A043E268C3F80C25E7E700BF70B58261BC
:101680000B784C6803704B6883604B68C3604B7881
:10169000837005468868E861134A0021FFF7EAFE77
:1016A000D0B974B103464FF0A046032103F5E072B0
:1016B00014F0010F18BF46F82210640803F101036B
:1016C000F4D12B784BB94FF0A043EA68C3F8082552
:1016D000002201236A702B7170BD4FF0A043EA68AD
:1016E000C3F80C25F4E700BF9115000010B503788E
:1016F000C16002220446027143BB4FF0A043C3F80D
:101700000815A269A160002301216370237521716E
:101710000AB120469047E378A2789A4234D0D3B1F8
:101720002278002A43D04FF0A042E168C2F80815A1
:10173000A17811FB03F109120123053121616370C6
:1017400023752379012B15D0002010BD4FF0A04345
:10175000C3F80C15D5E723781BB34FF0A043E2681C
:10176000C3F80C250023A178637023790531012B80
:101770002161E9D1E36922461868FFF78DFE002850
:10178000E2D0FFF779FADFE72378B3B14FF0A04357
:10179000E268C3F80825A17801230531216163704F
:1017A000CFE74FF0A043E268C3F80825DAE74FF02F
:1017B000A042E168C2F80C15BAE74FF0A043E26816
:1017C000C3F80C25E7E700BF83788B4226BFC170C2
:1017D00000200720704700BF82B00190019B002BC2
:1017E00043D0019B013B019340F2E730013800BF39
:1017F00000BF00BF00BF00BF00BF00BF00BF00BFF1
:1018000000BF00BF00BF00BF00BF00BF00BF00BFE0
:1018100000BF00BF00BF00BF00BF00BF00BF00BFD0
:1018200000BF00BF00BF00BF00BF00BF00BF00BFC0
:1018300000BF00BF00BF00BF00BF00BF00BF00BFB0
:1018400000BF00BF00BF00BF00BF00BF00BF00BFA0
:1018500000BF00BF00BF00BF00BF00BF00BF00BF90
:1018600000BFC3D1019B002BBBD102B0704700BFAA
:1018700070B50A4D2C7A0CB1852070BD4FF08043B5
:1018800001262C602046C3F8186506216C602C6187
:10189000EC6000F071F82E72204670BD8C030020C1
:1018A00070B5144C82B005460020FFF75FFEA37AA6
:1018B0005BB115B16B6801209847E36801330020E4
:1018C000E360FFF75BFE02B070BD15B123692B60CA
:1018D0002561E368002BF1D1074A084913601268BB
:1018E00001924FF0804002250122019EC0F804536E
:1018F0000A60E3E78C030020040100400800004078
:1019000010B51A4B1A6882B0A2B100221A601B6887
:1019100000934FF080430122154C0099C3F808232F
:101920006368627233B10CCB0020626098476368D1
:10193000002BF8D10F4B1A68AAB100221A601B685D
:1019400001934FF080430222094C0199C3F8082308
:1019500023690122A27233B10CCB01202261984786
:101960002369002BF8D102B010BD00BF0001004078
:101970008C03002004010040002810B418DB00F1A3
:10198000604303F561434901C9B283F80013C3B250
:101990004009800000F1604000F5614003F01F0243
:1019A00001239340C0F8803103605DF8044B704719
:1019B000C3B2044A03F00F0449012244C9B21176AC
:1019C000E6E700BFFCEC00E00649074A074B9B1A1C
:1019D00003DD043BC858D050FBDCFEF709FFFEF7DF
:1019E00045FD00003C1A00000000002074000020AB
:1019F000FEE7FEE7FEE7FEE7FEE7FEE7FEE7FEE7BF
:101A0000FEE7FEE7F8B500BFF8BC08BC9E4670478D
:101A1000F8B500BFF8BC08BC9E4670470400002023
:101A2000430000000403002024030020440300209E
:041A300000000000B2
:081A340038EAFF7F0100000009
:101A3C000400002000000000000000000000000076
:101A4C00000000000000000000000000000000008A
:101A5C0000000000201A0000000000000000000040
:101A6C00000000000000000000000000000000006A
:101A7C00000000000000000000000000000000005A
:101A8C00000000000000000000000000000000004A
:101A9C00000000000090D0032504000001040000A9
:041AAC000000000036
:04000003000019C917
:00000001FF
