:100000000000012021190000491900004B190000CF
:100010004D1900004F1900005119000000000000A8
:100020000000000000000000000000005319000064
:100030005519000000000000571900005919000070
:10004000591800005B1900005B1900005B190000E3
:100050005B1900005B1900005B1900005B190000D0
:100060005B1900005B1900005B1900005B190000C0
:100070005B1900005B1900005B1900005B190000B0
:100080005B1900005B1900005B1900005B190000A0
:10009000A90E00005B1900005B1900005B1900004D
:1000A0005B1900005B1900005B1900005B19000080
:1000B0005B1900005B190000000000000000000058
:1000C0005B1900005B1900005B1900005B19000060
:1000D000E50D00005B1900005B1900000000000046
:1000E0000000000000000000000000000000000010
:1000F0000000000000000000000000000000000000
:1001000000000000000000000000000000000000EF
:1001100000000000000000000000000000000000DF
:1004000010B5054C237833B9044B13B10448AFF34E
:1004100000800123237010BD780000200000000040
:10042000E03B00000C4B43B10C480D4910B5AFF355
:1004300000800C48036823B910BD0A48036833B92B
:100440007047094B002BF7D0BDE810401847064B0A
:10045000002BF5D0184700BF00000000E03B000073
:100460007C0000207400002000000000134B002BD3
:1004700008BF114B9D46A3F5803A00218B460F46DD
:100480001148124A121A00F081F80D4B002B00D0CF
:1004900098470C4B002B00D0984700200021040007
:1004A0000D000B4800F016F800F048F82000290075
:1004B00000F0C4FB00F014F8000008000000012068
:1004C00000000000000000007800002098020020DA
:1004D00009050000002301461A46184600F0A4B89A
:1004E00008B5074B044613B1002100F005F9054B90
:1004F0001868836A03B19847204600F077F900BF77
:10050000F9060000B03B000038B50A4C0A4D641BE8
:10051000A4100AD004F18043013B05EB8305013CA4
:1005200055F804399847002CF9D1BDE8384003F05C
:1005300039BB00BF740000207000002070B50F4E62
:100540000F4D761BB61018BF002405D0013455F8A6
:10055000043B9847A642F9D10A4E0B4D761B03F097
:100560001BFBB61018BF002406D0013455F8043B1D
:100570009847A642F9D170BD70BD00BF6C00002045
:100580006C000020700000206C00002070B4860712
:1005900046D0541E002A41D0CAB2034602E014F1EC
:1005A000FF343BD303F8012B9D07F8D1032C2ED940
:1005B000CDB245EA05250F2C45EA054519D903F1C9
:1005C00010022646103E0F2E42F8105C42F80C5CDA
:1005D00042F8085C42F8045C02F11002F2D8A4F17F
:1005E000100222F00F0204F00F041032032C134407
:1005F0000DD91E462246043A032A46F8045BFAD86F
:10060000221F22F003020432134404F003042CB12D
:10061000C9B21C4403F8011B9C42FBD170BC70475B
:1006200014460346C2E700BF2DE9F0472E4F3C6851
:100630000546884691469A46002C37D066681F2E9C
:1006400012DD2A4B002B4AD08C20AFF300800446E9
:10065000002844D03B680360002338604360C0F842
:10066000883075BB012314E08DB1D4F8880030B315
:10067000D0F8007140F826900123B34000EB8602C9
:100680001F43022DC0F80071C2F880A008D0731C6F
:10069000354602356360002044F82580BDE8F087C8
:1006A000D0F804211343C0F80431F0E7104B114C8B
:1006B0003C60002BC2D01B68C4F88830BEE70B4BEF
:1006C0006BB14FF48470AFF3008040B100276668CF
:1006D000C0F80071C0F80471C4F88800CAE74FF090
:1006E000FF30BDE8F08700BF2001002000000000BF
:1006F00000000000940000202DE9F04F83B00F4669
:100700000190384BD3F80090B9F1000F31D09B46DF
:10071000D9F80450D9F888806C1E11D4AD002E1D74
:100720004E44454447B3B8F1000F02D0EB6F9F42EF
:1007300022D0013C631CA5F10405A6F10406F1D109
:10074000294BB3B1D9F80430002B43D1D9F800308C
:100750007BB1CBF80030B8F1000F02D04046AFF3C8
:1007600000804846AFF30080DBF80090B9F1000F3D
:10077000CED103B0BDE8F08FD9F804303268013B28
:10078000A34216BF0023C9F804403360002AD0D02A
:10079000D9F804A0B8F1000F16D0D8F80011012341
:1007A000A3400B4210D0D8F804110B420ED155F8DB
:1007B000041C01989047D9F804309A45A1D1DBF880
:1007C00000304B45B5D09CE79047F4E755F8040C52
:1007D0009047F0E7CB46D9F80090B9F1000F97D1D8
:1007E000C7E700BF2001002000000000FEE700BFB7
:1007F000F0B4984B1B78062B1BD0974AD2F8883060
:1008000043F47003C2F88830BFF34F8FBFF36F8F8C
:100810004FF01023D3F80022002AC0F2E980D3F869
:100820000432002BC0F2E4808C4B8D4A1A60F0BC7D
:1008300070478C4B1B681D07DFD18B4B1B6803F087
:10084000F003302B02D1894B894A1A60864B1B6812
:1008500003F0F002302A00F0BA8003F0E003402BEE
:1008600000F0B580804B1B6803F0F003302B00F0E4
:100870009E807D4B1B6803F0F002302A00F08380DD
:1008800003F0E003402B7ED0774B1B6803F0F003AE
:10089000302B6AD0744B1B6803F0F003302B4DD023
:1008A000714B1B6803F0F003502BA6D14FF0805220
:1008B000704BD2F80414C3F82015D2F80814C3F80A
:1008C0002415D2F80C14C3F82815D2F81014C3F864
:1008D0002C15D2F81414C3F83015D2F81814C3F834
:1008E0003415D2F81C14C3F84015D2F82014C3F8FC
:1008F0004415D2F82414C3F84815D2F82814C3F8C4
:100900004C15D2F82C14C3F85015D2F83014C3F893
:100910005415D2F83414C3F86015D2F83814C3F85B
:100920006415D2F83C14C3F86815D2F84014C3F823
:100930006C15D2F84424C3F870255EE7454B4E4948
:100940001B784E4D4E484F4A05270F600126002464
:100950003F21062B2E60046011607FF44EAF414BA7
:100960001B681B077FF449AF9AE73A4B464A1B784E
:100970000321062B11607FF440AF3A4B1B681A0726
:100980007FF43BAF86E7334B1B784FF0804200216A
:10099000062BC2F80C11C2F81011C2F838157FF4FA
:1009A0002CAF304B1B6819077FF427AF6CE7374A31
:1009B0002849D368097823F080730629D3607FF42F
:1009C0001CAF284B1B6818077FF417AF51E7304A5C
:1009D000204B12681B782F49C2F34232062B0A6063
:1009E0007FF40BAF1F4B1B681C077FF406AF39E782
:1009F000294B0122C3F80425D3F80024002AFBD098
:100A00004FF0102315222449C3F80022D1F80034F6
:100A1000002BFBD04FF0102215211F4BC2F80412FF
:100A2000D3F80024002AFBD000221B49C3F8042578
:100A3000D1F80034002BFBD0BFF34F8F0649174B82
:100A4000CA6802F4E0621343CB60BFF34F8F00BF6C
:100A5000FDE700BFE00F00F000ED00E064000020C3
:100A60000090D003E40F00F0E80F00F074C00740DE
:100A70000DF0ADBA00C0004010560040885600404E
:100A80001856004014560040A0050040F0ED00E06C
:100A9000440200103C05004000E001400400FA055B
:100AA00038B58368B3F5003F00D038BD324B334DC5
:100AB0001A7804464ABBB5F90020002A2CDD304BD9
:100AC00007EE902A93ED007AF8EEE77AC7EE876A90
:100AD00016EE900A02F0E6FC9FED250B41EC110B9F
:100AE00000F0C2FF0022274B51EC100B02F07AFB02
:100AF00002F0DCFFC1B2204600F05EFE08B100F05B
:100B0000B5F82B88013B2B8038BDB5F90020632A4E
:100B100005DD00221A7038BD01221A70C5E7184B96
:100B200007EE902A93ED007AF8EEE77AC7EE876A2F
:100B300016EE900A02F0B6FC9FED0D0B41EC110B86
:100B400000F092FF00220F4B51EC100B02F04AFB19
:100B500002F0ACFFC1B2204600F02EFE18B92B887F
:100B600001332B8038BD00F081F8F8E7AFF3008047
:100B70000000000000000040680000201802002073
:100B8000140200200000F03F30B589B00021FF259D
:100B90004FF40034244B8DF81410244A24488DF867
:100BA000155005A90694079300F060FD70BB19214C
:100BB0001F4800F001FE30BB1D48816800F08EFD2B
:100BC00008B100F053F89FED140B00F0C7FE51EC94
:100BD000100B9FED130BCDE9020100F0BFFEDDE924
:100BE00002010022134B8DED000B02F0AFFC9DEDD6
:100BF000000B53EC102B02F0D3FD02F077FF0E4BED
:100C0000186009B030BD00F031F8D5E700F02EF8DB
:100C1000CDE700BFAFF300800000000000000040FF
:100C20000000000000E06F40B83B0000A10A000097
:100C30001C020020000059401402002008B500F0FA
:100C4000C3FD08B100F012F8002000F0D5FD00232C
:100C50001846054A022100F0A5FB08B100F006F88D
:100C6000FFF792FF002008BD2401002000B585B0E9
:100C700000230390194601AA44F20100ADF80430A4
:100C8000029300F003F805B05DF804FBBFF34F8F4B
:100C90000549064BCA6802F4E0621343CB60BFF318
:100CA0004F8F00BFFDE700BF00ED00E00400FA0534
:100CB000484B494830B401214FF4803410252F228D
:100CC000C0F88450C3F848431046C3F8084359603D
:100CD000013800BF00BF00BF00BF00BF00BF00BFA2
:100CE00000BF00BF00BF00BF00BF00BF00BF00BF0C
:100CF00000BF00BF00BF00BF00BF00BF00BF00BFFC
:100D000000BF00BF00BF00BF00BF00BF00BF00BFEB
:100D100000BF00BF00BF00BF00BF00BF00BF00BFDB
:100D200000BF00BF00BF00BF00BF00BF00BF00BFCB
:100D300000BF00BF00BF00BF00BF00BF00BF00BFBB
:100D400000BF00BF00BFC3D1244C996000231046F0
:100D50002360013800BF00BF00BF00BF00BF00BF5D
:100D600000BF00BF00BF00BF00BF00BF00BF00BF8B
:100D700000BF00BF00BF00BF00BF00BF00BF00BF7B
:100D800000BF00BF00BF00BF00BF00BF00BF00BF6B
:100D900000BF00BF00BF00BF00BF00BF00BF00BF5B
:100DA00000BF00BF00BF00BF00BF00BF00BF00BF4B
:100DB00000BF00BF00BF00BF00BF00BF00BF00BF3B
:100DC00000BF00BF00BF00BFC3D1054A137030BCD5
:100DD000704700BF0040024000E100E070020020C8
:100DE000610200202DE9F843274A284B0025C2F86C
:100DF0004051C2F84451C2F84851C2F84C51C2F8AF
:100E00000051C2F804511B681BB32149D2F80445B4
:100E10000A68204FA41A1A6824F07F44A242A84608
:100E200009D8197CDE69A41A1544A1B91EB133464C
:100E30001A68A242F5D91849184A0B7812789A42D2
:100E40001BD01749174A41F823504FF48013C2F8BA
:100E50000031BDE8F883D3F8149083F810803A6825
:100E60009B69484619462AB190470028DED0FFF713
:100E7000FDFEDBE71846C847D8E7531CDBB2022B60
:100E800008BF00230B70DCE700400240780200201E
:100E9000700200205C0200206D0200206C02002025
:100EA0006402002000E100E02DE9F04FA64AA749C6
:100EB00013780978A64889B000680090994200F03C
:100EC00032810133DBB2022B08BF00231370A14A29
:100ED00052F82380009B9E4A434423F07F431360D3
:100EE000012301939C4B9D4A1B78079319469C4B09
:100EF00012681B6802939B4B06921B780393944BDA
:100F00004FF0000C1B680493964610468946E34652
:100F1000CDF814C0644609F1FF395FFA89F9B9F1D7
:100F2000FF0F5DD002990FFA89F301EBC30511F8A9
:100F3000333095F801A05345EDD003EB43016A68C7
:100F4000AF7812F831600133DBB29F4208BF002353
:100F5000022E02EBC1020ED0032EECD10028EAD003
:100F6000C26904741046002AFAD195F801A0964689
:100F70004FF0010CDFE756680028DCD086420146BE
:100F800001D112E01146CA69002AD4D09642F9D1A3
:100F90008E420BD0F7693668CF618FB13A68324420
:100FA0003A6095F801A07046C5E70646C06950B1A1
:100FB000F7693668CF6186464FF0010C002FEDD1FE
:100FC00095F801A0B7E7684A4FF0010BC2F808B0E6
:100FD00086460490DC46CDF814B0CDF80CB0D9E7C5
:100FE000059B002B40F0A480BBF1000F02D0584BB2
:100FF000049A1A60BCF1000F02D0584BC3F800E00D
:10100000019B002B40F0DA80069B1B1A18BF0123BE
:10101000019300234E49DDF81CA00C68514904904F
:10102000097803914D490022D1F800B09646114647
:1010300002460AF1FF305FFA80FABAF1FF0F00F0C2
:10104000AE80029800EBCA0000905BB35E68D3F8F4
:1010500008901F46DB69454D301B20F07F40A842B9
:1010600058D809EB00053D604FF001007960B96088
:101070003874F961002A00F08D801668AE4280F065
:101080008180944603E00668AE4256D28446DCF87E
:101090001C00AD1B0028F6D13D60F861CCF81C7037
:1010A000002BD3D1009D95F801902878471C8145ED
:1010B00000EB4006F8B2BCD095F802C06F6828700B
:1010C000844508BF297007EBC60817F8366008BFCB
:1010D0000020012EEAD1D8F804703E7C002EE5D124
:1010E000B446D8F808607E60D8F80C90C7F808902D
:1010F000D8F81000F860D8F81400B86103980028F8
:10110000A9D06646301B194DC7F804C020F07F40B7
:10111000A842A6D9A61B26F07F464E4528D2A9EBA9
:1011200006053D60A0E74FF00008CDF80480D9E641
:101130000C4B9DF80C201A7056E7761B06603D603C
:10114000F861CCF81C70ABE76C0200206D02002047
:101150007002002064020020740200207802002047
:101160007C0200206002002000400240FEFF7F0061
:101170004FF0010039607960B9603874F9614AB1A3
:1011800016680025751B1560BB46FA614FF0010E0D
:101190003A465AE7BB463A464FF0010E55E77346CA
:1011A0000498002B40F0998090422BD1019B4BBBBF
:1011B000774A0023137009B0BDE8F08F754A00210B
:1011C0000B460C460D461268B0B10668464500F263
:1011D000D780C7680560A8EB06083444C2693FB1F0
:1011E0000099C361214421F07F418760416003463B
:1011F000104601990028E8D100293FF40BAF65495A
:101200000A6007E7002A00F0B8806349634ED1F80E
:1012100004553078D2F800E02B1B23F07F430333D2
:1012200000285ED09E452CBF04EB0E03E3185A49FC
:1012300023F07F43C1F84035D1F80425521B5B1BD6
:1012400022F07F4223F07F4303329A42B0D9D1F893
:101250000435C1F840352F20013800BF00BF00BF62
:1012600000BF00BF00BF00BF00BF00BF00BF00BF86
:1012700000BF00BF00BF00BF00BF00BF00BF00BF76
:1012800000BF00BF00BF00BF00BF00BF00BF00BF66
:1012900000BF00BF00BF00BF00BF00BF00BF00BF56
:1012A00000BF00BF00BF00BF00BF00BF00BF00BF46
:1012B00000BF00BF00BF00BF00BF00BF00BF00BF36
:1012C00000BF00BF00BF00BF00BF00BF00BFC3D151
:1012D000334B1022C3F804216AE72E4BC3F800B049
:1012E00062E72F484FF48032C1F844231027C1F839
:1012F00004230122C0F8847147602F200A6001385E
:1013000000BF00BF00BF00BF00BF00BF00BF00BFE5
:1013100000BF00BF00BF00BF00BF00BF00BF00BFD5
:1013200000BF00BF00BF00BF00BF00BF00BF00BFC5
:1013300000BF00BF00BF00BF00BF00BF00BF00BFB5
:1013400000BF00BF00BF00BF00BF00BF00BF00BFA5
:1013500000BF00BF00BF00BF00BF00BF00BF00BF95
:1013600000BF00BF00BF00BF00BF00BF00BF00BF85
:1013700000BF00BFC3D1327054E7FFF799FC17E7F5
:1013800009B104490A60A6EB0806066042E600BF00
:10139000600200207802002000400240610200202C
:1013A00000E100E02DE9F04112F0030502D0072032
:1013B000BDE8F081002A3DD00E4614469846074607
:1013C000FFF776FC06EB460304F11801DB00CA18B0
:1013D0001344A670A672A6746361194E194B1A487D
:1013E00061601A49E260C6F8008005601C60184A16
:1013F000184BDFF86CE0184E2570032008704FF48E
:101400008010C021657025726572257465748EF830
:1014100000503570114CC3F8800183F81413186024
:10142000C2F8087583F82413D2F8043523602846DF
:10143000BDE8F081034B1A600720BDE8F08100BFD2
:101440005C0200207C020020780200207402002050
:101450000040024000E100E06D0200207002002028
:101460006C020020074B1B6823B12AB120B103682E
:10147000187C18B1082070470720704759745A61CA
:10148000704700BF7C020020304B1B6823B118B1AD
:10149000042903D80720704708207047F0B5446935
:1014A000002C4DD0447C012C0CBF0E460026EFF3DF
:1014B0000584C4F3080494B1103C65B2002D38DBF8
:1014C00005F1604404F5614494F800436409E4B212
:1014D000022C39D0062C0CBF0824102400E0102464
:1014E00023445C7893F802E01F78651CEDB2AE45AA
:1014F00008BF0025AF4225D004EB4404D3F804E034
:10150000E4001EEB04071DD04FF0010C0EF804C0E0
:10151000DFF844E078600E4CDEF80405B8604FF464
:10152000801EF9603E617A615D70C4F800E10020C0
:10153000F0BD084D04F00F0425442C7E6409C6E775
:101540000820F0BD0420F0BD0024C9E77C02002083
:1015500000E100E0FCEC00E00040024072B6024A0C
:10156000136801331360704780020020034A136838
:10157000013B136003B962B6704700BF80020020D0
:1015800010B5037D01220446027113BB836903B1C8
:101590009847E378A2789A4248D0002B35D1237837
:1015A000002B56D04FF0A043E268C3F80C2500236F
:1015B000A178637023790531012B21611ED1E36984
:1015C00022461868FFF760FFC0B1BDE81040FFF782
:1015D0004DBB03789BB94FF0A043C268C3F8082500
:1015E000A178E378CB1A01FB03F10912002305313E
:1015F0002161637023752379012BE0D010BD4FF07A
:10160000A043C268C3F80C25EAE72278DAB14FF0AC
:10161000A042E168C2F80815A17811FB03F1091294
:1016200001230531216163702375E4E72378B3B1A9
:101630004FF0A043E268C3F80825A17801230531E3
:1016400021616370D7E74FF0A042E168C2F80C1542
:10165000E2E74FF0A043E268C3F80825A7E74FF0A0
:10166000A043E268C3F80C25E7E700BF70B58261CC
:101670000B784C6803704B6883604B68C3604B7891
:10168000837005468868E861134A0021FFF7EAFE87
:10169000D0B974B103464FF0A046032103F5E072C0
:1016A00014F0010F18BF46F82210640803F101037B
:1016B000F4D12B784BB94FF0A043EA68C3F8082562
:1016C000002201236A702B7170BD4FF0A043EA68BD
:1016D000C3F80C25F4E700BF8115000010B50378AE
:1016E000C16002220446027143BB4FF0A043C3F81D
:1016F0000815A269A160002301216370237521717F
:101700000AB120469047E378A2789A4234D0D3B108
:101710002278002A43D04FF0A042E168C2F80815B1
:10172000A17811FB03F109120123053121616370D6
:1017300023752379012B15D0002010BD4FF0A04355
:10174000C3F80C15D5E723781BB34FF0A043E2682C
:10175000C3F80C250023A178637023790531012B90
:101760002161E9D1E36922461868FFF78DFE002860
:10177000E2D0FFF77BFADFE72378B3B14FF0A04365
:10178000E268C3F80825A17801230531216163705F
:10179000CFE74FF0A043E268C3F80825DAE74FF03F
:1017A000A042E168C2F80C15BAE74FF0A043E26826
:1017B000C3F80C25E7E700BF83788B4226BFC170D2
:1017C00000200720704700BF70B50A4D2C7A0CB17D
:1017D000852070BD4FF0804301262C602046C3F861
:1017E000186506216C602C61EC6000F071F82E72B7
:1017F000204670BD8402002070B5144C82B00546AE
:101800000020FFF7ABFEA37A5BB115B16B68012036
:101810009847E36801330020E360FFF7A7FE02B0BA
:1018200070BD15B123692B602561E368002BF1D1F0
:10183000074A08491360126801924FF08040022560
:101840000122019EC0F804530A60E3E784020020ED
:10185000040100400800004010B51A4B1A6882B01D
:10186000A2B100221A601B6800934FF0804301224E
:10187000154C0099C3F808236368627233B10CCB2E
:101880000020626098476368002BF8D10F4B1A68FC
:10189000AAB100221A601B6801934FF08043022214
:1018A000094C0199C3F8082323690122A27233B1BC
:1018B0000CCB0120226198472369002BF8D102B09C
:1018C00010BD00BF00010040840200200401004060
:1018D000002810B418DB00F1604303F561434901AF
:1018E000C9B283F80013C3B24009800000F1604020
:1018F00000F5614003F01F0201239340C0F88031DE
:1019000003605DF8044B7047C3B2044A03F00F0450
:1019100049012244C9B21176E6E700BFFCEC00E0C1
:101920000649074A074B9B1A03DD043BC858D050B1
:10193000FBDCFEF75DFFFEF799FD0000EC3B0000CD
:101940000000002078000020FEE7FEE7FEE7FEE74B
:10195000FEE7FEE7FEE7FEE7FEE7FEE72DE9F043E0
:101960002DED028B8BB055EC104B00F00DFA384B7F
:10197000B0EE408AF0EE608A93F90060731C0ED0DE
:1019800022462B462046294602F07AF8074630B90F
:10199000002200232046294602F054F840B9B0EE58
:1019A000480AF0EE680A0BB0BDEC028BBDE8F0838C
:1019B000284B0897CDE90245CDE904450193B6B916
:1019C000254F4FF060462046294600220023CDE9EE
:1019D000066702F023F898B302230093684601F0EB
:1019E000C3F8A8B1089BC3B99DED068BD7E7DFF814
:1019F00070904FF000082046294600220023CDE9D0
:101A0000068902F00BF868B102239E420093E5D1EB
:101A100002F0BCF822230360E4E702F0B7F8089B69
:101A20000360E1E70123022E00930BD102F0AEF830
:101A300021230360094801F09BF88DED060BD1E7E7
:101A400001230093684601F08FF80028F2D1EDE7FA
:101A500069000020BC3B0000FFFFEFC7C43B000053
:101A60000000F0FF000000002DE9F04F2DED028B8B
:101A7000DFF80CA38BB057EC106B55EC114B00F05A
:101A800027FA9AF90080B0EE408AF0EE608AB8F149
:101A9000FF3F34D022462B462046294601F0F0FF76
:101AA000834660BB32463B463046394601F0E8FF8C
:101AB0008146002840F09F803046394600220023AE
:101AC00001F0ACFF20B3002200232046294601F09C
:101AD000A5FF8346002867D09FED9F7B0122A44B82
:101AE000CDF820900092CDE90267CDE904458DED57
:101AF000067B0193B8F1000F49D09FED998BB0EEB2
:101B0000480AF0EE680A0BB0BDEC028BBDE8F08F1E
:101B1000B0EE480AF0EE680A01F01EF88046002890
:101B200000F084804FF000084FF0000951EC180BD2
:101B300042464B4601F072FF0028E0D047EC106BA4
:101B400001F00AF80028DAD045EC104B01F004F857
:101B50000028D4D09AF90030854A0192042100224D
:101B6000022BCDE90267CDE90445CDE90689009154
:101B7000089203D0684600F0F7FF60B902F006F85B
:101B80002223036007E09FED747B8DED067B6846A2
:101B900000F0EAFF50B3089B1BB101F0F7FF089B70
:101BA00003609DED068BAAE745EC104B00F0D4FFD7
:101BB0000028A4D0002200232046294601F038FF47
:101BC00000289CD06A4A9AF90030CDF820B0012153
:101BD000CDE90267CDE904458DE80600002BD2D09F
:101BE00064490020022BCDE90601D0D101F0CEFFDF
:101BF00021230360CFE7002200232046294601F07D
:101C00000DFF00283FF47BAF9FED558B584BCDF86F
:101C100020B00122B8F1020FCDE90267CDE90445F9
:101C20008DED068B8DE80C00B1D168E747EC106BA9
:101C300000F092FF00283FF475AF45EC104B00F028
:101C40008BFF00283FF46EAF53EC182B18EE100AF0
:101C5000194601F015FF002861D103239AF900808D
:101C60000093434B0890CDE90267CDE90445019309
:101C7000B8F1000F2DD1DFF80C914FF06048002231
:101C8000002330463946CDE9068901F0D1FE00280F
:101C90003FF470AF0022384B2046294601F056FC35
:101CA00004460D4645EC104B00F06AFF204653EC0D
:101CB000102B294601F0B2FE70BB304B9AF9008020
:101CC0004FF06042CDE90623B8F1020F7FF452AF26
:101CD00054E79FED257B00220023304639468DEDE9
:101CE000067B01F0A5FE0028EED00022224B204604
:101CF000294601F02BFC04460D4645EC104B00F044
:101D00003FFF204653EC102B294601F087FE18B9FF
:101D1000184B0022CDE906239AF90080D4E7144B32
:101D20009AF90090CDF820800122CDE90267CDE933
:101D300004458DE80C00B9F1000F3FF424AF0022F8
:101D400000231046194601F02BFDB9F1020FCDE931
:101D500006013FF44BAF1AE700000000000000004E
:101D6000000000000000F03F000000000000F07FD5
:101D7000C83B00000000F0FF0000E03FFFFFEFC79E
:101D800069000020FFFFEF472DE9F04355EC104BB1
:101D9000B5F5801F83B02B4621DA10EE102A25F00E
:101DA00000410A4364D0002D6DDB29460022444BDC
:101DB00010EE100A01F0CAFB424A0D462B46934230
:101DC00004466FF035010FDD22462B46204629469A
:101DD00001F00AFA41EC100B03B0BDE8F083394A78
:101DE00093424FF00001EFDC1815A0F2FF300844D9
:101DF0004FEAD0794844C3F3130801F041FBC9F519
:101E00007F73033348EA035545EC104B06460F46F3
:101E100000F0D2FF3046394623A3D3E900238DEDED
:101E2000000B01F093FB9DED000B04460D4620A333
:101E3000D3E9002351EC100B01F088FB02460B465E
:101E40002046294601F0D0F91BA3D3E9002304461C
:101E50000D463046394601F079FB02460B462046D6
:101E6000294601F0C1F941EC100B03B0BDE8F08345
:101E7000002200230020144901F092FC41EC100BD9
:101E800003B0BDE8F08310EE102A2B462046294609
:101E900001F0A8F90022002301F082FC41EC100BB4
:101EA0009AE700BFAFF30080362BF111F3FE593DE6
:101EB0000EE526157BCBDB3F00609F501344D33FDC
:101EC00000005043FFFFEF7F000050C30000000000
:101ED0002DE9F04F51EC110B21F0004858EA0004B5
:101EE00093B03ED053EC102B714E23F00044B4421B
:101EF00010EE10AA1D462DDC894611EE10EA28D0FE
:101F0000B04527DC6A4EB04500F08380002D1646B0
:101F10001F46CDE90001C0F281804FF0000BBEF1F9
:101F2000000F2FD1624B984500F09580614B98458A
:101F300068D0B9F1804F00F0D1835F4B994521D132
:101F4000002D1FDB47EC106B13B0BDE8F04F00F025
:101F50002FBD6AB104F1404404F5801454EA0A0329
:101F600008D15449002041EC100B13B0BDE8F08FAC
:101F7000A045C7DD514813B0BDE8F04F00F0F8BDF3
:101F80004FF0000B47EC106B00F0DEFD51EC100B36
:101F9000BAF1000F1AD124B1464B25F040429A42C3
:101FA00014D1B9F1000FC0F2D383002DDBDA04F1B4
:101FB000404404F5801454EA0B0300F0AF84BBF1F5
:101FC000010FD0D101F100431946CCE7ED0F05F127
:101FD000FF3A5BEA0A0353D0394B984576DD03F1AB
:101FE0000473984540F30684364B9C4253DDB9F1A7
:101FF000000F53DD2CA3D3E900231046194601F04E
:10200000A5FAB0E7B9F1000FC0F25A84304639465C
:10201000A9E7BEF1000F3FF479AF9BE72A4B984543
:102020002BDCA3F1547398457FF777AF4FEA285321
:10203000A3F2FF33142B40F35984C3F134032EFA77
:1020400003F202FA03F39E457FF467AF02F0010248
:10205000C2F1020B63E704F1404303F5801353EA36
:102060000A033FF47EAF174B9C4240F33E83B9F125
:10207000000F13DBDDE9000175E74FF0020B4EE7BF
:1020800032463B461046194601F0ACF802460B4674
:1020900001F086FB67E7B9F1000FABDB0020002100
:1020A00061E700BFAFF300809C7500883CE4377E99
:1020B0000000F07F0000F03F0000E03FC43B000064
:1020C0000000E041FFFFEF3FFFFF3F43B4F5801FFB
:1020D0004FF0000205DAD64B01F038FA6FF0340207
:1020E0000C462315D34EC4F31304A3F2FF33134459
:1020F00044F07F55B4421A460D9345F4401540F321
:102100002E83CD4B9C4240F30D849FEDB37B8DED30
:10211000087B8DED0E7B9FEDB27B13468DED067B2C
:1021200001330D93A5F580154FF00008DDE9062376
:102130002946CDE90A0101F055F8DDE906230646F6
:102140000F46DDE90A0101F04FF802460B46002078
:10215000BA4901F025FB03460C46CDE9103402468E
:102160000B463046394601F0F1F96B1043F000534D
:1021700003F5002303EB08050A4600230146CDE9D9
:1021800002120293DDE902890024CDE904122B46F4
:1021900022464046494601F0D9F902460B463046F0
:1021A000394601F01FF8DDE9062306460F462046B2
:1021B000294601F017F802460B46DDE90A0101F055
:1021C00011F842464B4601F0C1F902460B46304633
:1021D000394601F007F8DDE9102301F0B7F9DDE930
:1021E0000445CDE9060122462B462046294601F04A
:1021F000ADF97DA3D3E9002304460D4601F0A6F90D
:102200007BA3D3E9002300F0EFFF22462B4601F029
:102210009DF979A3D3E9002300F0E6FF22462B467F
:1022200001F094F976A3D3E9002300F0DDFF224604
:102230002B4601F08BF974A3D3E9002300F0D4FFFF
:1022400022462B4601F082F971A3D3E9002300F066
:10225000CBFF224606460F462B462046294601F074
:1022600075F902460B463046394601F06FF9424691
:1022700004460D464B46DDE9040100F0B5FFDDE9FB
:10228000062301F063F922462B4600F0ADFF4246DB
:1022900006460F464B464046494601F057F9002294
:1022A000674BCDE90A0100F09FFF32463B4600F044
:1022B0009BFF02980D46044622462B46404649465F
:1022C00001F044F90022804689465D4B20462946AC
:1022D00000F088FFDDE90A2300F084FF02460B4688
:1022E0003046394600F07EFFDDE9042301F02EF987
:1022F000224606460F462B46DDE9060101F026F987
:1023000002460B463046394600F06EFF06460F4641
:1023100002460B4640464946CDE9048900F064FF79
:1023200002983DA3D3E9002304460D4601F00EF9BF
:10233000DDE90423804689462046294600F052FF05
:1023400002460B463046394600F04CFF34A3D3E931
:10235000002301F0FBF834A3D3E9002306460F461F
:102360002046294601F0F2F802460B46304639462F
:1023700000F03AFFDDE90E2300F036FF06460D9827
:102380000F4601F07DF8324604460D463B46404676
:10239000494600F029FFDDE9082300F025FF224629
:1023A0002B4600F021FF029822462B46CDE9020180
:1023B00000F018FFDDE9082300F014FF42464B4609
:1023C00000F010FF02460B463046394600F00AFF87
:1023D0008046894636E000BF000000000000000093
:1023E000000000000000F03FEF4E454A287ECA3F43
:1023F00065DBC9934A86CD3F01411DA96074D13F79
:102400004D268F515555D53FFFAB6FDBB66DDB3F8A
:10241000033333333333E33F000000E009C7EE3FBB
:10242000FD033ADC09C7EE3FF5015B14E02F3EBE29
:10243000000040438E98030079B60B000000F03F87
:10244000000008400BF1FF3353EA0A0300F07B81E0
:102450009FEDC97B8DED067BDDE900AB53465C4605
:10246000CDE9003400230093DDE9004550462246C3
:102470002B46594600F0B6FEDDE9022301F066F86E
:10248000524606460F465B464046494601F05EF816
:1024900002460B463046394600F0A6FE22468046EC
:1024A00089462B46DDE90201CDE9048901F04EF8A9
:1024B0000B46024606460F464046494600F094FE4B
:1024C000C74B994204460D468A4640F3188101F1F4
:1024D0003F4303F5E003034340F0FA81A8A3D3E9A7
:1024E0000023DDE9040100F07FFE32468046894684
:1024F0003B462046294600F075FE02460B46404604
:10250000494601F0B3FA002840F0E281A8464FEABC
:1025100028534FF48012A3F2FE3342FA03F35344DC
:10252000C3F30A52AF4DA2F2FF321541C3F31304B5
:1025300023EA05010020C2F1140B44F48014BAF11F
:10254000000F02460B4644FA0BFB30463946B8BF33
:10255000CBF1000B00F046FE02460B4606460F4646
:10256000DDE9040100F040FE4FEA0B5A0D4600245D
:1025700085A3D3E900232046294600F0E7FF324631
:10258000804689463B462046294600F02BFE0246FF
:102590000B46DDE9040100F025FE7DA3D3E900230D
:1025A00000F0D4FF7CA3D3E9002306460F46204663
:1025B000294600F0CBFF02460B463046394600F074
:1025C00013FE06460F4602460B464046494600F0BB
:1025D0000BFE42464B4604460D4600F003FE024603
:1025E0000B463046394600F0FDFD224680468946BE
:1025F0002B462046294600F0A9FF69A3D3E9002312
:1026000006460F4600F0A2FF67A3D3E9002300F0BF
:10261000E9FD32463B4600F099FF65A3D3E900236C
:1026200000F0E2FD32463B4600F090FF62A3D3E9A2
:10263000002300F0D7FD32463B4600F087FF60A341
:10264000D3E9002300F0D0FD32463B4600F07EFF88
:1026500002460B462046294600F0C4FD06460F46BA
:1026600002460B462046294600F070FF0022CDE9C5
:1026700000014FF080433046394600F0B3FD02467A
:102680000B46DDE9000101F08BF8424606460F4695
:102690004B462046294600F059FF42464B4600F083
:1026A000A3FD02460B463046394600F09BFD22460C
:1026B0002B4600F097FD02460B4600204A4900F0E9
:1026C00091FD8A44BAF5801F02460B46C0F23A815A
:1026D0005146DDE9062300F039FF44E432463B462B
:1026E0003046394600F032FF3DE4B9F1000FBFF645
:1026F000D5ACDDE90034184604F1004133E43B4B2E
:1027000021F00048984540F30081394B0B440343C6
:102710000CD132463B4600F065FD02460B46DDE932
:10272000040101F08FF900283FF4F1AEDDE9060164
:1027300025A3D3E9002300F009FF23A3D3E9002355
:1027400000F004FF0FE49FED227B8DED067B83E616
:1027500002460B460020244901F022F825E49FEDB3
:102760001E7B8DED087B8DED0E7B9FED037B4FF087
:1027700000088DED067BD9E4000000000000F03F6A
:10278000FE822B654715973C00000000432EE63F74
:10279000EF39FAFE422EE63F396CA80C615C20BE90
:1027A000D0A4BE726937663EF16BD2C541BDBB3E57
:1027B0002CDE25AF6A56113F93BDBE166CC1663F35
:1027C0003E5555555555C53F59F3F8C21F6EA501E5
:1027D000000000000000F0BF00000000000000004A
:1027E000FFFF8F40FFFF0F000000F03FFFCB904046
:1027F00000346F3F6A4B9C427FF74DAC694B9C4263
:102800003FF7F5AB0022674B00F0ECFC54A3D3E993
:10281000002304460D4600F099FE53A3D3E900239C
:10282000804689462046294600F090FE0022CDE9E8
:1028300002015D4B2046294600F088FE02460B4609
:102840004BA1D1E9000100F0CDFC22462B4600F05F
:102850007DFE02460B460020544900F0C3FC224690
:102860002B4606460F462046294600F06FFE0246DC
:102870000B463046394600F069FE3FA3D3E90023FA
:1028800000F064FE02460B46DDE9020100F0AAFCFE
:1028900002460B4604460D464046494600F0A4FC5D
:1028A00042464B460020CDE9020100F09BFC024667
:1028B0000B462046294600F095FC80468946C1E536
:1028C00032463B460020374900F06AFFFFF74BBB1A
:1028D000DDE906012AA3D3E9002300F037FE28A38F
:1028E000D3E9002300F032FEFFF73DBBBEF1000F3D
:1028F0007FF446ABC3F1140348FA03F202FA03F380
:10290000984527D0F346FFF711BB284B98453FF772
:10291000FEADDDE900239246934628E602460B46CB
:10292000FFF7B0BB9FED187B8DED087B9FED187B0B
:102930008DED0E7B9FED187B4FF480288DED067B8F
:10294000FFF7F4BB584643EC102B00F0ADF951EC07
:10295000100BBEE602F00102C2F1020BFFF7E6BA6D
:10296000000000604715F73F44DF5DF80BAE543EB2
:10297000555555555555D53FFE822B654715F73FA3
:102980009C7500883CE4377E0000004003B8E23FBD
:1029900006D0CF43EBFD4C3E000000000000F83FA6
:1029A000FEFFEF3F0000F03F0000D03F0000E03F9F
:1029B0002DE9F041634855EC104BA84300F0958099
:1029C000002D2B4610EE102A70DD2F157DD0A7F2BA
:1029D000FF37C3F31303F90743F4801361D403EB08
:1029E000D27100260B447F105200B64616204FF4D9
:1029F00000110EEB01049C424FEAD2754FEA4202ED
:102A000003DC1B1B04EB010E0E44013805EB4303F2
:102A10004FEA5101EDD1844620244FF0004109E0F6
:102A200020D003EBD275013C4FEA51012B444FEA11
:102A3000420220D0734501EB0C05F1DD002D05EBC2
:102A4000010C09DBF0469542A3EB0E0300D9013BD4
:102A5000521B0844C646E4E7BCF1000FF2DB0EF15E
:102A60000108F0E79542DCD8002D05EB010C4EDBA8
:102A700098460023ECE7134302D0421C4BD00130B0
:102A800040087110F30701F17F5101F5001148BFB3
:102A900040F0004001EB0753024643EC102BBDE829
:102AA000F0815B0003EBD273520098E710EE101A2E
:102AB00025F00040014328D0ADBB2F46D30A153F77
:102AC0005205002BFAD0DE0228D4002400E0044690
:102AD0005B00DD0204F10100F9D5C0F1200122FA0A
:102AE00001F10B433F1B824071E710EE102A2B4689
:102AF00010EE100A294600F029FD22462B4600F070
:102B000073FB41EC100BBDE8F081BDE8F081BCF136
:102B1000000FA4DAACE701362046B2E700202021FE
:102B20004FF0FF34DBE710EE102A2B4620462946F3
:102B300000F058FB02460B4600F032FE41EC100B51
:102B4000BDE8F0810000F07F53EC102B23F0004330
:102B500043EC102B704700BF10EE903A43F000405A
:102B600000F58010C00F7047002070470000000083
:102B70009FED010B704700BF000000000000F87FD0
:102B8000F0B553EC102BC3F30A56A6F2FF3013280E
:102B900083B019464FEAD37410EE105A2FDC002888
:102BA00049DB3E4E064103EA060717432CD0760860
:102BB00033401D430CD04FF48023132821EA06062E
:102BC00043FA00F141EA06010CBF4FF00045002531
:102BD000334800EBC4042A46D4E9004510462B468E
:102BE000224600F001FBCDE9000122462B46DDE93B
:102BF000000100F0F7FA41EC100B03B0F0BD3328F0
:102C000006DDB0F5806F40D043EC102B03B0F0BD73
:102C1000A6F213464FF0FF30F0400242F4D04008D5
:102C20000242D5D04FF0804325EA000043FA06F671
:102C300046EA0005CCE723F000401043E4D0C3F39C
:102C40001300104347420743154D5E0C3F0B07F43A
:102C50000023760405EBC40243EA0601D2E90067CB
:102C600010EE100A32463B4600F0BEFACDE90001F4
:102C70003B463246DDE9000100F0B4FA21F00043A2
:102C800043EAC47141EC100BC0E710EE100A19467C
:102C900000F0AAFA41EC100BB8E700BFFFFF0F00ED
:102CA000D03B00000000000053EC102B70B5C3F3C4
:102CB0000A541946054614BB23F0004111432AD09B
:102CC00019460022384B394E10EE100A00F03EFC37
:102CD000B54202460B461FDBC1F30A54363C2C4476
:102CE00040F2FE7084421FDC002C2DDD21F0FF41FC
:102CF00021F4E00141EA045343EC102B70BD40F293
:102D0000FF708442EBD110EE100A194600F06CFA05
:102D100041EC100B70BD70BD1FA3D3E9002300F080
:102D200015FC41EC100B70BD43EC112B9FED1C0BFF
:102D300000F046FA1AA3D3E9002351EC100B00F07F
:102D400005FC41EC100B70BD14F1350F13DA4CF299
:102D500050318D4243EC112BE8DC9FED0F0B00F05E
:102D60002FFA0DA3D3E9002351EC100B00F0EEFB7A
:102D700041EC100B70BD21F0FF4121F4E00136342D
:102D800041EA0453104619460022094B00F0DEFBCD
:102D900041EC100B70BD00BF59F3F8C21F6EA501C6
:102DA0009C7500883CE4377E00005043B03CFFFF38
:102DB0000000903C000000002DE9F04F51EC100B9A
:102DC000B1F5801F85B00B4659DA10EE102A21F0BC
:102DD0000044224300F0F8800029C0F280810022E4
:102DE000DD4B00F0B3FBDD4A0B4693426FF0350735
:102DF0004ADCC3F3130505F5152606F6647606F4DA
:102E0000801686F07F5282F4401242EA05011C15BA
:102E10000022D34B00F0E6F9AB1CA4F2FF34C3F35D
:102E200013033C44022B04EB165482468B464FF0AE
:102E3000000232DC002300F0F1FD002800F0CF801A
:102E4000002C00F05881204600F01AFBACA3D3E917
:102E5000002306460F4600F079FBABA3D3E900231D
:102E600004460D463046394600F070FB02460B46DC
:102E70002046294600F0B8F941EC100B0AE0B74AA9
:102E800093424FF00007B4DD02460B4600F0ACF968
:102E900041EC100B05B0BDE8F08F4FF0804300F01F
:102EA000A3F902460B465046594600F079FC064607
:102EB00020460F4600F0E4FA3246CDE900013B46D9
:102EC00030463946CDE9026700F040FB02460B462A
:102ED0008046894600F03AFB8DA3D3E900230646DD
:102EE0000F4600F033FB8CA3D3E9002300F07CF9FC
:102EF00032463B4600F02AFB89A3D3E9002300F0C9
:102F000073F932463B4600F021FB87A3D3E9002347
:102F100000F06AF942464B4600F018FB84A3D3E95F
:102F20000023804689463046394600F00FFB82A3D5
:102F3000D3E9002300F058F932463B4600F006FB87
:102F40007FA3D3E9002300F04FF932463B4600F05F
:102F5000FDFA0B4602464946404600F045F9A5F504
:102F6000C223C5F5D725A3F27A4351351D43002D61
:102F7000804689465CDD00227A4B5046594600F077
:102F8000E5FA52465B4600F0E1FA06460F46002C91
:102F90006ED132463B464046494600F025F9DDE910
:102FA000022300F0D3FA02460B463046394600F0C1
:102FB00019F902460B465046594600F013F941EC08
:102FC000100B05B0BDE8F08F0022002300206649F9
:102FD00000F0E6FB41EC100B05B0BDE8F08F5AA302
:102FE000D3E900235046594600F0B0FA02460B469A
:102FF00000205C4900F0F6F8524606460F465B4654
:103000005046594600F0A2FA02460B463046394671
:1030100000F09CFA06460F46002C40F0A7800246BE
:103020000B465046594600F0DDF841EC100B31E7F5
:10303000002C00F0AF8032A3D3E90023DDE90001CA
:1030400000F084FA42464B4604460D465046594627
:1030500000F0C8F8DDE9022300F078FA2AA3D3E9EA
:10306000002306460F46DDE9000100F06FFA21E07B
:1030700023A3D3E90023DDE9000100F067FA32461B
:103080003B4604460D464046494600F0ADF8DDE9B2
:10309000022300F05BFA1CA3D3E900238046894693
:1030A000DDE9000100F052FA02460B46404649466F
:1030B00000F09AF802460B463046394600F092F886
:1030C00052465B4600F08EF802460B4620462946E3
:1030D00000F088F841EC100B05B0BDE8F08F10EE61
:1030E000102A0B4600F07EF80022002300F058FB67
:1030F00041EC100BCEE69FED160BCBE6AFF3008054
:103100000000E0FE422EE63F763C7935EF39EA3D9D
:1031100044523EDF12F1C23FDE03CB966446C73F06
:10312000599322942449D23F935555555555E53F1F
:103130009FC678D0099AC33FAF788E1DC571CC3F2A
:1031400004FA97999999D93F555555555555D53FF5
:10315000000000000000000000005043FFFFEF7F70
:103160000000F03F0000E03F000050C3204600F0A8
:1031700087F90FA3D3E900238046894600F0E6F9DA
:103180000DA3D3E9002304460D464046494600F00E
:10319000DDF98FE702460B465046594600F022F80B
:1031A000DDE9022300F0D2F903E700BFAFF30080AE
:1031B0000000E0FE422EE63F763C7935EF39EA3DED
:1031C00053EC102B11EE900A23F0004100F0004068
:1031D00041EA000343EC102B704700BF81F000412F
:1031E00002E000BF83F0004330B54FEA41044FEAEC
:1031F000430594EA050F08BF90EA020F1FBF54EA87
:10320000000C55EA020C7FEA645C7FEA655C00F022
:10321000E2804FEA5454D4EB5555B8BF6D420CDDF3
:103220002C4480EA020281EA030382EA000083EA76
:10323000010180EA020281EA0303362D88BF30BD16
:1032400011F0004F4FEA01314FF4801C4CEA11316C
:1032500002D0404261EB410113F0004F4FEA0333CB
:103260004CEA133302D0524263EB430394EA050F56
:1032700000F0A780A4F10104D5F1200E0DDB02FAC5
:103280000EFC22FA05F2801841F1000103FA0EF259
:10329000801843FA05F359410EE0A5F120050EF11F
:1032A000200E012A03FA0EFC28BF4CF0020C43FA50
:1032B00005F3C01851EBE37101F0004507D54FF05D
:1032C000000EDCF1000C7EEB00006EEB0101B1F5AD
:1032D000801F1BD3B1F5001F0CD349085FEA3000F3
:1032E0004FEA3C0C04F101044FEA445212F5800FFE
:1032F00080F09A80BCF1004F08BF5FEA500C50F19B
:10330000000041EB045141EA050130BD5FEA4C0C7D
:10331000404141EB010111F4801FA4F10104E9D106
:1033200091F0000F04BF01460020B1FA81F308BFFD
:103330002033A3F10B03B3F120020CDA0C3208DDC9
:1033400002F1140CC2F10C0201FA0CF021FA02F1A4
:103350000CE002F11402D8BFC2F1200C01FA02F114
:1033600020FA0CFCDCBF41EA0C019040E41AA2BF39
:1033700001EB0451294330BD6FEA04041F3C1CDA01
:103380000C340EDC04F11404C4F1200220FA04F021
:1033900001FA02F340EA030021FA04F345EA0301CB
:1033A00030BDC4F10C04C4F1200220FA02F001FA8D
:1033B00004F340EA0300294630BD21FA04F029460F
:1033C00030BD94F0000F83F4801306BF81F48011A8
:1033D0000134013D4EE77FEA645C18BF7FEA655C1B
:1033E00029D094EA050F08BF90EA020F05D054EAED
:1033F000000C04BF1946104630BD91EA030F1EBFF2
:103400000021002030BD5FEA545C05D140004941F5
:1034100028BF41F0004130BD14F580043CBF01F5E8
:10342000801130BD01F0004545F0FE4141F47001CE
:103430004FF0000030BD7FEA645C1ABF19461046A9
:103440007FEA655C1CBF0B46024650EA013406BFAA
:1034500052EA033591EA030F41F4002130BD00BF69
:1034600090F0000F04BF0021704730B54FF4806426
:1034700004F132044FF000054FF0000150E700BFA7
:1034800090F0000F04BF0021704730B54FF4806406
:1034900004F1320410F0004548BF40424FF00001F3
:1034A0003EE700BF42004FEAE2014FEA31014FEA36
:1034B00002701FBF12F07F4393F07F4F81F0605185
:1034C000704792F0000F14BF93F07F4F704730B5F4
:1034D0004FF4607401F0004521F0004120E700BF87
:1034E00050EA010208BF704730B54FF000050AE00E
:1034F00050EA010208BF704730B511F0004502D50F
:10350000404261EB41014FF4806404F132045FEA10
:10351000915C3FF4DCAE4FF003025FEADC0C18BFB5
:1035200003325FEADC0C18BF033202EBDC02C2F1AB
:10353000200300FA03FC20FA02F001FA03FE40EA3D
:103540000E0021FA02F11444C1E600BF70B54FF03D
:10355000FF0C4CF4E06C1CEA11541DBF1CEA13551F
:1035600094EA0C0F95EA0C0F00F0DEF82C4481EA87
:10357000030621EA4C5123EA4C5350EA013518BFA7
:1035800052EA033541F4801143F4801338D0A0FB94
:1035900002CE4FF00005E1FB02E506F00042E0FB41
:1035A00003E54FF00006E1FB03569CF0000F18BF47
:1035B0004EF0010EA4F1FF04B6F5007F64F54074EF
:1035C00004D25FEA4E0E6D4146EB060642EAC62182
:1035D00041EA55514FEAC52040EA5E504FEACE2EEF
:1035E000B4F1FD0C88BFBCF5E06F1ED8BEF1004FF2
:1035F00008BF5FEA500E50F1000041EB045170BD6E
:1036000006F0004646EA010140EA020081EA0301B1
:10361000B4EB5C04C2BFD4EB0C0541EA045170BDAD
:1036200041F480114FF0000E013C00F3AB8014F127
:10363000360FDEBF002001F0004170BDC4F1000470
:10364000203C35DA0C341BDC04F11404C4F12005F1
:1036500000FA05F320FA04F001FA05F240EA02004C
:1036600001F0004221F0004110EBD37021FA04F682
:1036700042EB06015EEA430E08BF20EAD37070BD3C
:10368000C4F10C04C4F1200500FA04F320FA05F09B
:1036900001FA04F240EA020001F0004110EBD3709D
:1036A00041F100015EEA430E08BF20EAD37070BD0D
:1036B000C4F1200500FA05F24EEA020E20FA04F3E6
:1036C00001FA05F243EA020321FA04F001F0004195
:1036D00021FA04F220EA020000EBD3705EEA430E06
:1036E00008BF20EAD37070BD94F0000F0FD101F035
:1036F0000046400041EB010111F4801F08BF013C6E
:10370000F7D041EA060195F0000F18BF704703F0AB
:103710000046520043EB030313F4801F08BF013D32
:10372000F7D043EA0603704794EA0C0F0CEA1355EE
:1037300018BF95EA0C0F0CD050EA410618BF52EAA8
:103740004306D1D181EA030101F000414FF00000AE
:1037500070BD50EA410606BF1046194652EA4306BC
:1037600019D094EA0C0F02D150EA013613D195EA30
:103770000C0F05D152EA03361CBF104619460AD178
:1037800081EA030101F0004141F0FE4141F4700182
:103790004FF0000070BD41F0FE4141F4780170BD72
:1037A00070B54FF0FF0C4CF4E06C1CEA11541DBFD7
:1037B0001CEA135594EA0C0F95EA0C0F00F0A7F8D9
:1037C000A4EB050481EA030E52EA03354FEA013106
:1037D00000F088804FEA03334FF0805545EA131319
:1037E00043EA12634FEA022245EA111545EA1065E1
:1037F0004FEA00260EF000419D4208BF964244F178
:10380000FD0404F5407402D25B084FEA3202B61A96
:1038100065EB03055B084FEA32024FF480104FF46A
:10382000002CB6EB020E75EB030E22BFB61A7546DE
:1038300040EA0C005B084FEA3202B6EB020E75EB71
:10384000030E22BFB61A754640EA5C005B084FEAD9
:103850003202B6EB020E75EB030E22BFB61A7546A6
:1038600040EA9C005B084FEA3202B6EB020E75EBB1
:10387000030E22BFB61A754640EADC0055EA060E72
:1038800018D04FEA051545EA16754FEA06164FEAB5
:10389000C30343EA52734FEAC2025FEA1C1CC0D161
:1038A00011F4801F0BD141EA00014FF000004FF0EE
:1038B000004CB6E711F4801F04BF01430020B4F1AF
:1038C000FD0C88BFBCF5E06F3FF6AFAEB5EB030C67
:1038D00004BFB6EB020C5FEA500C50F1000041EB64
:1038E000045170BD0EF0004E4EEA113114EB5C0431
:1038F000C2BFD4EB0C0541EA045170BD41F4801104
:103900004FF0000E013C90E645EA060E8DE60CEA0B
:10391000135594EA0C0F08BF95EA0C0F3FF43BAF28
:1039200094EA0C0F0AD150EA01347FF434AF95EADF
:103930000C0F7FF425AF104619462CE795EA0C0FC3
:1039400006D152EA03353FF4FDAE1046194622E790
:1039500050EA410618BF52EA43067FF4C5AE50EA6A
:1039600041047FF40DAF52EA43057FF4EBAE12E75A
:103970004FF0FF3C06E000BF4FF0010C02E000BF3B
:103980004FF0010C4DF804CD4FEA410C7FEA6C5C1E
:103990004FEA430C18BF7FEA6C5C1BD001B050EAC1
:1039A000410C0CBF52EA430C91EA030F02BF90EAAC
:1039B000020F0020704710F1000F91EA030F58BF6B
:1039C000994208BF90422CBFD8176FEAE37040F0CD
:1039D000010070474FEA410C7FEA6C5C02D150EA6B
:1039E000013C07D14FEA430C7FEA6C5CD6D152EA26
:1039F000033CD3D05DF8040B704700BF84461046EB
:103A000062468C461946634600E000BF01B5FFF7E9
:103A1000B7FF002848BF10F1000F01BD4DF808EDB9
:103A2000FFF7F4FF0CBF012000205DF808FB00BF8A
:103A30004DF808EDFFF7EAFF34BF012000205DF8E4
:103A400008FB00BF4DF808EDFFF7E0FF94BF012031
:103A500000205DF808FB00BF4DF808EDFFF7CEFF32
:103A600094BF012000205DF808FB00BF4DF808ED71
:103A7000FFF7C4FF34BF012000205DF808FB00BF42
:103A80004FEA410C7FEA6C5C02D150EA013C0AD15A
:103A90004FEA430C7FEA6C5C02D152EA033C02D14C
:103AA0004FF0000070474FF0010070474A0011D2FC
:103AB00012F5001211D20DD56FF47873B3EB625288
:103AC0000ED44FEAC12343F0004343EA505323FA94
:103AD00002F070474FF00000704750EA013002D109
:103AE0004FF0FF3070474FF0000070474FEA41023F
:103AF000B2F1E04324BFB3F5001CDCF1FE5C0DD94C
:103B000001F0004C4FEAC0024CEA5070B2F1004F95
:103B100040EB830008BF20F00100704711F0804F98
:103B200021D113F13872BCBF01F00040704741F45D
:103B300080114FEA5252C2F11802C2F1200C10FA61
:103B40000CF320FA02F018BF40F001004FEAC12345
:103B50004FEAD32303FA0CFC40EA0C0023FA02F3E9
:103B60004FEA4303CCE77FEA625307D150EA0133BF
:103B70001EBF4FF0FE4040F44000704701F000408F
:103B800040F0FE4040F40000704700BF014B186851
:103B9000704700BF00000020F8B500BFF8BC08BCAB
:103BA0009E467047F8B500BFF8BC08BC9E467047FB
:103BB00004000020430000003C0200206C6F6731CD
:103BC0003000000000000000706F7700000000006F
:103BD000000000000000304300000000000030C37F
:043BE00000000000E1
:083BE40088C8FF7F010000000A
:103BEC0004000020000000000000000000000000A5
:103BFC0000000000000000000000000000000000B9
:103C0C0000000000B43B00000000000000000000B9
:103C1C000000000000000000000000000000000098
:103C2C000000000000000000000000000000000088
:103C3C000000000000000000000000000000000078
:103C4C00000000000090D0030101000025040000DA
:083C5C0001040000000000005B
:0400000300001921BF
:00000001FF
