:1000000000000120592700008127000083270000FD
:1000100085270000872700008927000000000000D6
:100020000000000000000000000000008B2700001E
:100030008D270000000000008F270000912700009E
:1000400093270000932700009327000093270000C8
:100050009327000093270000B51D000093270000A0
:1000600009260000B1260000932700009327000016
:100070009327000093270000932700009327000098
:100080009327000093270000932700009327000088
:100090009327000093270000932700009327000078
:1000A0009327000093270000932700009327000068
:1000B00093270000932700000000000000000000CC
:1000C0009327000093270000932700009327000048
:1000D00093270000932700009327000000000000F2
:1000E0000000000000000000000000000000000010
:1000F0000000000000000000000000000000000000
:1001000000000000000000000000000000000000EF
:1001100000000000000000000000000000000000DF
:1004000010B5054C237833B9044B13B10448AFF34E
:1004100000800123237010BD740000200000000044
:10042000E82700000C4B43B10C480D4910B5AFF361
:1004300000800C48036823B910BD0A48036833B92B
:100440007047094B002BF7D0BDE810401847064B0A
:10045000002BF5D0184700BF00000000E82700007F
:10046000780000207000002000000000134B002BDB
:1004700008BF114B9D46A3F5803A00218B460F46DD
:100480001148124A121A00F081F80D4B002B00D0CF
:1004900098470C4B002B00D0984700200021040007
:1004A0000D000B4800F016F800F048F82000290075
:1004B00000F0FCFA00F014F8000008000000012031
:1004C000000000000000000074000020D0010020A7
:1004D00009050000002301461A46184600F0A4B89A
:1004E00008B5074B044613B1002100F005F9054B90
:1004F0001868836A03B19847204600F077F900BF77
:10050000F9060000AC27000038B50A4C0A4D641B00
:10051000A4100AD004F18043013B05EB8305013CA4
:1005200055F804399847002CF9D1BDE8384002F05D
:1005300037B900BF700000206C00002070B50F4E6E
:100540000F4D761BB61018BF002405D0013455F8A6
:10055000043B9847A642F9D10A4E0B4D761B02F098
:1005600019F9B61018BF002406D0013455F8043B21
:100570009847A642F9D170BD70BD00BF6800002049
:10058000680000206C0000206800002070B486071E
:1005900046D0541E002A41D0CAB2034602E014F1EC
:1005A000FF343BD303F8012B9D07F8D1032C2ED940
:1005B000CDB245EA05250F2C45EA054519D903F1C9
:1005C00010022646103E0F2E42F8105C42F80C5CDA
:1005D00042F8085C42F8045C02F11002F2D8A4F17F
:1005E000100222F00F0204F00F041032032C134407
:1005F0000DD91E462246043A032A46F8045BFAD86F
:10060000221F22F003020432134404F003042CB12D
:10061000C9B21C4403F8011B9C42FBD170BC70475B
:1006200014460346C2E700BF2DE9F0472E4F3C6851
:100630000546884691469A46002C37D066681F2E9C
:1006400012DD2A4B002B4AD08C20AFF300800446E9
:10065000002844D03B680360002338604360C0F842
:10066000883075BB012314E08DB1D4F8880030B315
:10067000D0F8007140F826900123B34000EB8602C9
:100680001F43022DC0F80071C2F880A008D0731C6F
:10069000354602356360002044F82580BDE8F087C8
:1006A000D0F804211343C0F80431F0E7104B114C8B
:1006B0003C60002BC2D01B68C4F88830BEE70B4BEF
:1006C0006BB14FF48470AFF3008040B100276668CF
:1006D000C0F80071C0F80471C4F88800CAE74FF090
:1006E000FF30BDE8F08700BF1C01002000000000C3
:1006F00000000000900000202DE9F04F83B00F466D
:100700000190384BD3F80090B9F1000F31D09B46DF
:10071000D9F80450D9F888806C1E11D4AD002E1D74
:100720004E44454447B3B8F1000F02D0EB6F9F42EF
:1007300022D0013C631CA5F10405A6F10406F1D109
:10074000294BB3B1D9F80430002B43D1D9F800308C
:100750007BB1CBF80030B8F1000F02D04046AFF3C8
:1007600000804846AFF30080DBF80090B9F1000F3D
:10077000CED103B0BDE8F08FD9F804303268013B28
:10078000A34216BF0023C9F804403360002AD0D02A
:10079000D9F804A0B8F1000F16D0D8F80011012341
:1007A000A3400B4210D0D8F804110B420ED155F8DB
:1007B000041C01989047D9F804309A45A1D1DBF880
:1007C00000304B45B5D09CE79047F4E755F8040C52
:1007D0009047F0E7CB46D9F80090B9F1000F97D1D8
:1007E000C7E700BF1C01002000000000FEE700BFBB
:1007F000F0B4984B1B78062B1BD0974AD2F8883060
:1008000043F47003C2F88830BFF34F8FBFF36F8F8C
:100810004FF01023D3F80022002AC0F2E980D3F869
:100820000432002BC0F2E4808C4B8D4A1A60F0BC7D
:1008300070478C4B1B681D07DFD18B4B1B6803F087
:10084000F003302B02D1894B894A1A60864B1B6812
:1008500003F0F002302A00F0BA8003F0E003402BEE
:1008600000F0B580804B1B6803F0F003302B00F0E4
:100870009E807D4B1B6803F0F002302A00F08380DD
:1008800003F0E003402B7ED0774B1B6803F0F003AE
:10089000302B6AD0744B1B6803F0F003302B4DD023
:1008A000714B1B6803F0F003502BA6D14FF0805220
:1008B000704BD2F80414C3F82015D2F80814C3F80A
:1008C0002415D2F80C14C3F82815D2F81014C3F864
:1008D0002C15D2F81414C3F83015D2F81814C3F834
:1008E0003415D2F81C14C3F84015D2F82014C3F8FC
:1008F0004415D2F82414C3F84815D2F82814C3F8C4
:100900004C15D2F82C14C3F85015D2F83014C3F893
:100910005415D2F83414C3F86015D2F83814C3F85B
:100920006415D2F83C14C3F86815D2F84014C3F823
:100930006C15D2F84424C3F870255EE7454B4E4948
:100940001B784E4D4E484F4A05270F600126002464
:100950003F21062B2E60046011607FF44EAF414BA7
:100960001B681B077FF449AF9AE73A4B464A1B784E
:100970000321062B11607FF440AF3A4B1B681A0726
:100980007FF43BAF86E7334B1B784FF0804200216A
:10099000062BC2F80C11C2F81011C2F838157FF4FA
:1009A0002CAF304B1B6819077FF427AF6CE7374A31
:1009B0002849D368097823F080730629D3607FF42F
:1009C0001CAF284B1B6818077FF417AF51E7304A5C
:1009D000204B12681B782F49C2F34232062B0A6063
:1009E0007FF40BAF1F4B1B681C077FF406AF39E782
:1009F000294B0122C3F80425D3F80024002AFBD098
:100A00004FF0102315222449C3F80022D1F80034F6
:100A1000002BFBD04FF0102215211F4BC2F80412FF
:100A2000D3F80024002AFBD000221B49C3F8042578
:100A3000D1F80034002BFBD0BFF34F8F0649174B82
:100A4000CA6802F4E0621343CB60BFF34F8F00BF6C
:100A5000FDE700BFE00F00F000ED00E064000020C3
:100A60000090D003E40F00F0E80F00F074C00740DE
:100A70000DF0ADBA00C0004010560040885600404E
:100A80001856004014560040A0050040F0ED00E06C
:100A9000440200103C05004000E001400400FA055B
:100AA000014B01221A707047200100202DE9F0430C
:100AB0001F4D0FCD87B001AC0FC42B6823601D4ABA
:100AC0001D48012301A98DF80D3000F02BFD08B160
:100AD00000F036F81848194E054600F089FF4FF02F
:100AE00000094FF0C8080027132F94BF07EB8704B5
:100AF000444686F80090A4B222460021284600F021
:100B0000C5FA1128F8D03378002BFCD022460121F9
:100B1000284600F0BBFA40B90137192000F0C0FFA9
:100B2000282FA8F10508DFD1DBE700F009F8F3E78B
:100B3000B4270000A10A0000C827000020010020FF
:100B400000B585B000230390194601AA44F20100C4
:100B5000ADF80430029300F003F805B05DF804FB33
:100B6000BFF34F8F0549064BCA6802F4E062134396
:100B7000CB60BFF34F8F00BFFDE700BF00ED00E08B
:100B80000400FA05F8B51E4D15F811300C46A3B156
:100B900015F81130013BDBB205F8113015F81130B2
:100BA00023B14B00EA1852783ABBF8BD154E56F8FF
:100BB00021301B680846DB6998476300EA185278C1
:100BC000CAB101271D446B78013BDBB26B706B78B7
:100BD000002BEAD10B4E56F824301B682046DB6907
:100BE0009847002FE1D056F8243002215868BDE81C
:100BF000F84001F001BD034EF5E70027E2E700BF32
:100C0000CC010020240100202DE9F04F036893F867
:100C10002340022C83B003D0082003B0BDE8F08F3E
:100C20004F0016467A1803EB82020D4651688E4239
:100C30000446B14600F09080D0F804E0DFF86C8301
:100C40009EF8040018F80020D2B2FF2A12D0FE2A23
:100C50000BD002F5A872DEF800E0DFF848C35EF8BA
:100C600022E05CF82020964501D01120D5E7FF2234
:100C700008F80020FE2208F80020002973D09A69A5
:100C8000914270D216B19642C0F09281D4F8009091
:100C900099F822A099F8200001F0FAFA99F82100B9
:100CA00001F0F6FA51464FF0FF3001F06FFB7B196F
:100CB00009EB83034FF0010B187A5B7A0BFA00F013
:100CC0000BFA03F31843514601F084FB6368B44AFE
:100CD000196899F82000002E00F011814FEACA0A25
:100CE000524401F5A471D9F8186001F099FA5A46F6
:100CF00000230321606801F035FC6268A94B12797A
:100D000099F82100002143F822106368196801F165
:100D10004C0201F5A47101F083FAB6B299F82000F3
:100D200001F0A2FA99F8210001F09EFA7B1909EB73
:100D3000830303215E606068027908F8021023686B
:100D4000DB6973B1984B022403EB420321465C55E7
:100D500001F040FC002060E7DB6913B142681079C4
:100D60009847002059E7002E3BD09B699E425CD3F8
:100D7000D4F800A09AF8200001F08AFA9AF821002D
:100D800001F086FA07EB050B23684FEA8B0B5B44F7
:100D90000193187A01F07CFA019B587A01F078FAF5
:100DA000DAF818309E420BD322685AF80B005A44E6
:100DB0001FFA83F9917A003118BF012100F0E2FF98
:100DC0002F440AEB870A00234A466068294601F04F
:100DD000C9FBCAF8049060680279FF2308F8023062
:100DE000ADE7D4F800A09AF8200001F051FA9AF883
:100DF000210001F04DFA07EB050B23684FEA8B0B3E
:100E00005B440193187A01F043FA019B587A01F090
:100E10003FFA23685AF80B005B44B146997AB1FA5D
:100E200081F1490900F0AEFFCAE7D4F8009099F8C3
:100E3000200099F822A001F02BFA99F8210001F086
:100E400027FA2F442368BF003B440193187A01F02E
:100E50001FFA019B587A01F01BFA4F4400233246D7
:100E60002946606801F07EFB51464FF0FF3001F0EB
:100E70008DFA387A7B7A4FF0010B05EB45070BFAB8
:100E800003F30BFA00F009EB87071843514601F012
:100E9000A1FA7B68002B57D0636899F82000196885
:100EA0004FEACA0202F1804202F5F83201F5A4715C
:100EB00001F0B6F95A4600230321606801F052FBA5
:100EC0006268384B127999F82100002143F822100A
:100ED0006368196801F14C0201F5A47101F0A0F9F1
:100EE00099F8200001F0C0F999F8210001F0BCF94F
:100EF0007E6060680279032308F802301FE74FEA3A
:100F0000850B0BF5A07B4FEACA0A5244594401F005
:100F100087F9334632466068032101F023FB63689A
:100F2000204A196893F804E099F8210005F5A873A0
:100F300051F8233042F82E3063681A6802EB0B0137
:100F40004C3201F06DF9E9E6626899F82000116809
:100F500001934FEACA024FEA850A0AF5A07A02F124
:100F60008042514402F5F83201F05AF9019B606861
:100F70001A46032101F0F6FA63680A4A19681B79D8
:100F800099F8210005F5A87E51F82E1042F823109B
:100F900063681A6802EB0A014C3201F041F99FE7DD
:100FA00004F0014030010020CC0100202C01002081
:100FB000276897F8229097F8200001F069F997F8D0
:100FC000210001F065F949464FF0FF3001F0DEF9EC
:100FD00097F8200097F821304FF0010A0AFA03F33E
:100FE0000AFA00F01843494601F0F4F9636897F8EB
:100FF0002000196805F110029200D2B20A4401F5EE
:10100000A67101F00DF962681E4B116893F800E0BB
:10101000D1F8103505EB4500800007EB000BDBB283
:10102000DBF80420734514BF3346731C93421BD373
:1010300097F8210049460AFA00F001F0A7F9CBF829
:101040000460002332466068032101F08BFA4846B1
:1010500001F084F962680C4B127943F822606068F1
:10106000027908F802506AE63858019197F821A0F1
:1010700000F07AFE0199024601F5A671504601F092
:10108000CFF8DCE738010020300100202DE9F04FD7
:10109000046894F82330022B83B003D0082003B0F7
:1010A000BDE8F08F0546A069DFF890E34F000E46DB
:1010B00083B2791802FB03F304EB8102AEFB031346
:1010C0005B0952681FFA83F8904500F08F806C68C6
:1010D000DFF86C9394F804E019F80E10C9B2FF29F8
:1010E00011D0FE290AD001F5A8712468DFF844C3A5
:1010F00054F821405CF82E108C4201D01120CEE72C
:10110000FF2109F80E10FE219CB209F80E10002AEA
:1011100073D0904271D914B18045C0F09381D5F855
:10112000008098F822A098F8200001F0B1F898F813
:10113000210001F0ADF851464FF0FF3001F026F9E3
:10114000BB1908EB83034FF0010B187A5B7A0BFA9B
:1011500000F00BFA03F31843514601F03BF96B68BA
:10116000B34A196898F82000002C00F010814FEA6B
:10117000CA0A524401F5A471D8F8184001F050F899
:101180005A4600230321686801F0ECF96A68A94B0C
:10119000127998F82100002143F822106B68196831
:1011A00001F14C0201F5A47101F03AF8A4B298F8EB
:1011B0002000374401F058F898F8210008EB870820
:1011C00001F052F8C8F8044068680279032309F86E
:1011D00002302B68DB6973B1974B022403EB4203A7
:1011E00021469C5501F0F6F9002058E7E36913B158
:1011F0006A6810799847002051E774B380455CD342
:10120000D5F800A09AF8200001F042F89AF82100E1
:1012100001F03EF8BC192B68A40003EB040B9BF80B
:10122000080001F035F89BF8090001F031F8DAF810
:101230001830984535D2444637440AEB870A0023D4
:1012400022466868314601F08DF9CAF804406868A2
:101250000279FF2309F80230BBE7D5F800A09AF81D
:10126000200001F015F89AF8210001F011F807EBC1
:1012700006082B684FEA880803EB080B9BF8080068
:1012800001F006F89BF8090001F002F82B685AF803
:1012900008004344997AB1FA81F1490900F072FDDE
:1012A000CAE72A685AF8040022449CB2917A0031B5
:1012B00018BF012100F066FDBEE72C6894F82000FD
:1012C00094F822A000F0E4FF94F8210000F0E0FF81
:1012D00037442B68BF003B440193187A00F0D8FFD5
:1012E000019B587A00F0D4FF274400234246314640
:1012F000686801F037F951464FF0FF3001F046F8C9
:10130000387A7B7A4FF0010B06EB46070BFA03F3B2
:101310000BFA00F004EB87071843514601F05AF826
:101320007B68002B58D06B6894F8200019684FEA4E
:10133000CA0202F1804202F5F83201F5A47100F010
:101340006FFF5A4600230321686801F00BF96A68B1
:10135000384B127994F82100002143F822106B6871
:10136000196801F14C0201F5A47100F059FF94F8DD
:10137000200000F079FF94F8210000F075FFC7F815
:10138000048068680279032309F8023021E74FEAF4
:10139000860B0BF5A07B4FEACA0A5244594400F071
:1013A0003FFF234622466868032101F0DBF86B68A3
:1013B000204A196893F804E098F8210006F5A8730C
:1013C00051F8233042F82E306B681A6802EB0B019B
:1013D0004C3200F025FFEAE66A6894F820001168B4
:1013E00001934FEACA024FEA860A0AF5A07A02F18F
:1013F0008042514402F5F83200F012FF019B686808
:101400001A46032101F0AEF86B680A4A19681B7985
:1014100094F8210006F5A87E51F82E1042F823100A
:101420006B681A6802EB0A014C3200F0F9FE9EE785
:1014300004F0014030010020CC0100201F85EB5159
:101440002C0100202C6894F8227094F8200000F001
:101450001FFF94F8210000F01BFF39464FF0FF30CA
:1014600000F094FF94F8200094F821304FF0010A26
:101470000AFA03F30AFA00F01843394600F0AAFF0B
:101480006B6894F82000196806F110029200D2B23D
:101490000A4401F5A67100F0C3FE6A681F4B11688B
:1014A00093F800E0D1F8103506EB4600800004EB1D
:1014B000000BDBB2DBF80420734514BF434608F190
:1014C000010393421BD394F8210039460AFA00F035
:1014D00000F05CFFCBF804800023424668680321DB
:1014E00001F040F8384600F039FF6A680C4B127979
:1014F00043F822806868027909F8026069E620589A
:10150000019194F821A000F02FFC0199024601F509
:10151000A671504600F084FEDCE700BF38010020D1
:10152000300100202DE9F04F8BB041B1066896F8EC
:1015300023304BB1082738460BB0BDE8F08F0B279E
:1015400038460BB0BDE8F08F0C469346054600F0D8
:101550000DFE18B1852801D00427ECE700F042FB0E
:10156000002800F08281C44B1A68FF2302F0F002C9
:1015700086F8203086F8213086F822303372737274
:1015800073754FF0FF33303A4FF00001336033751D
:10159000F360BA4BF17218BF0122F17506F1200019
:1015A0001A7000F0EDFD002840F0A68106F1210040
:1015B00000F0E6FD002840F09F8106F1220000F0D7
:1015C0007BFE002840F01C8107464FF009094FF4CC
:1015D000A07A0296CDF80CB054F82730591C5FFA67
:1015E00087FB00F09A802E6896F82310002900F0FF
:1015F000B481B046082798F82000FF2801D000F0F9
:10160000F3FD98F82100FF2801D000F0EDFD98F8D7
:101610002200FF2801D000F07FFE08F1180AFF2405
:101620004FF0FF39002698F80800FF2803D000F09B
:10163000DBFD88F8084098F80900FF2803D000F087
:10164000D3FD88F80940D8F80000421C03D000F010
:101650004BFBC8F8009088F80B6008F10C08D045E7
:10166000E1D1686800F03EFF65E7012101FA03F06F
:1016700006994FF0A04E46F82130002A00F0B281C2
:101680007246C2F80C0509F1FF30304400F078FDD5
:10169000002840F08C8106EB090000F071FD079BEB
:1016A00006903B4406EB8306002840F08081307AA8
:1016B00000F0EEFD707A00F0EBFD6A68337A116895
:1016C000D8F8000005935144049100F04DFB059BB0
:1016D00004990246184600F0A3FD6B68D8F8000094
:1016E0001968737A059301F5A471049100F03CFB2D
:1016F000059B04990246184600F092FD4FF0010345
:10170000F3726B685E4A1B79069E02EB43035946EF
:1017100032462846DE55FFF777FA09F10C09B9F190
:10172000210F07F101070AF1040A7FF455AF23697D
:10173000029EDDF80CB0B3F5805FC0F03F81B3F5D9
:10174000005FC0F04581B3F5804FC0F03F81B3F535
:10175000004FC0F03981B3F5803FC0F03F81B3F551
:10176000003FC0F03981B3F5802FC0F03381B3F56D
:10177000002FC0F03581B3F5801FC0F01C81B3F598
:10178000001F4FF00902C0F017810023062168688E
:101790008DF820208DF823108DF821308DF822301F
:1017A0000379384A099308A900F038FE0746002853
:1017B0006ED16B6824691B68D3F810352401DBB245
:1017C000DC40B46168684FF0010800F0C7FE68684B
:1017D000CDF8008022460423022100F0D7FE02212A
:1017E000686800F009FFC6F81CB06B6826481B79D2
:1017F000264A86F82380FF2140F82350D1549AE6E8
:101800002C6894F82000FF2801D000F0EDFC94F83B
:101810002100FF2801D000F0E7FC94F82200FF2807
:1018200001D000F079FD04F11808FF264FF0FF39D0
:101830000027207AFF2802D000F0D6FC2672607ABA
:10184000FF2802D000F0D0FC66722068431C03D051
:1018500000F04AFAC4F80090E7720C344445E8D12D
:10186000686800F03FFE042765E600F08DF9002867
:101870003FF479AE03275EE6E80F00F03801002060
:10188000CC010020850B0000240100202C01002049
:101890002C6894F82000FF2801D000F0A5FC94F8F3
:1018A0002100FF2801D000F09FFC94F82200FF28BF
:1018B00001D000F031FD04F118084FF0FF094FF09E
:1018C000FF3A0026207AFF2803D000F08DFC84F830
:1018D0000890607AFF2803D000F086FC84F8099015
:1018E0002068431C03D000F0FFF9C4F800A0E672A2
:1018F0000C34A045E6D1B4E62C6894F82000FF280B
:1019000001D000F071FC94F82100FF2801D000F014
:101910006BFC94F82200FF2801D000F0FDFC04F1DC
:101920001808FF274FF0FF390026207AFF2802D041
:1019300000F05AFC2772607AFF2802D000F054FCB5
:1019400067722068421C03D000F0CEF9C4F8009002
:10195000E6720C34A045E8D182E77A0007923A4457
:1019600090000692E21906EB0008127A88F80A2025
:10197000C8F804102968059208444FF003028DF856
:10198000202090F80AE00493BEFA8EFE4FF0010288
:101990004FEA5E1E184608A98DF822208DF821E036
:1019A00000F02AF9049B059A00283FF45EAED5F8B2
:1019B000008004271FE60822D2B2E6E60B4B1A7815
:1019C000002AF9D00122E0E60322F5E70222F3E73C
:1019D0000122F1E70622EFE70522EDE70422EBE71B
:1019E0000722E9E7CEF808054DE600BF38010020E0
:1019F000F8B5054640682C681E4E0379E27A002748
:101A000006F813708AB906EB4306E27D002777706B
:101A100002BB194AFF21D15400F0A0FD686800F014
:101A20008FFD022384F82330F8BD2B682068997A53
:101A3000B1FA81F1490900F0A5F9206800F078F9C0
:101A400067606868E27D037906EB430600277770DC
:101A5000002ADED02B68E068997DB1FA81F149094E
:101A600000F090F9E06800F063F927616868037995
:101A7000CFE700BFCC0100202C01002072B6024A43
:101A800013680133136070473C010020034A136858
:101A9000013B136003B962B6704700BF3C010020F0
:101AA00082B00190019B002B43D0019B013B01932D
:101AB00040F2E730013800BF00BF00BF00BF00BFE9
:101AC00000BF00BF00BF00BF00BF00BF00BF00BF1E
:101AD00000BF00BF00BF00BF00BF00BF00BF00BF0E
:101AE00000BF00BF00BF00BF00BF00BF00BF00BFFE
:101AF00000BF00BF00BF00BF00BF00BF00BF00BFEE
:101B000000BF00BF00BF00BF00BF00BF00BF00BFDD
:101B100000BF00BF00BF00BF00BF00BF00BF00BFCD
:101B200000BF00BF00BF00BF00BFC3D1019B002B9F
:101B3000BBD102B0704700BF002810B418DB00F121
:101B4000604303F561434901C9B283F80013C3B28E
:101B50004009800000F1604000F5614003F01F0281
:101B600001239340C0F8803103605DF8044B704757
:101B7000C3B2044A03F00F0449012244C9B21176EA
:101B8000E6E700BFFCEC00E038B5144C94F8455093
:101B90000DB1082038BD4FF0FF33062108466362BF
:101BA000A362E36223636363A363E3632364236049
:101BB0006360A360E36023616361A361E361236207
:101BC00084F84430FFF7B8FF054A4FF00041012385
:101BD000C2F8041384F84530284638BD400100207F
:101BE00000600040034B93F84500003018BF01200F
:101BF000704700BF4001002070B43A4B1A1892F9A8
:101C00002440013402D0082070BC70478C78DCB1CD
:101C10001A6801325AD05A68013259D09A68013292
:101C200058D0DA68013257D01A69013256D05A6951
:101C3000013255D09A6901321BD0DA69013208BFEE
:101C4000072517D00420DFE7FE2382F824304B78E5
:101C5000012B35D001234FF0A0428340C2F80C3550
:101C600000F5E0704FF0A043032243F8202000204D
:101C7000CAE70625AA0002F1804202F5C0421E18FA
:101C8000002443F8254086F82450D2F810450B78FC
:101C90004D7824F4981424F4F8541B042D05C2F84C
:101CA000104505F4801503F4403304022B4304F47B
:101CB000F854D2F8105523432B43C2F81035C6E729
:101CC0004FF0A0428340C2F80835C9E70025D1E7AC
:101CD0000125CFE70225CDE70325CBE70425C9E79A
:101CE0000525C7E74001002070B40F4B1A1892F980
:101CF0002420D1B2072909D802F5A2720B4C4FF06B
:101D0000FF36002543F8216044F8225003444FF089
:101D1000A04200F5E070FF24022183F8244042F83D
:101D2000201070BC704700BF4001002000600040E0
:101D30000C4B184490F924309B0003F1804303F5C9
:101D4000C043D3F8102542F4F85141F00301C3F821
:101D5000101542F0030200BF00BF00BFC3F81025FA
:101D6000704700BF40010020054B184490F9240043
:101D70008000C0B200F1804000F5C040704700BF55
:101D8000400100200A4B18440A1C90F924304FEA05
:101D9000830303F1804303F5C04318BF0122D3F846
:101DA000101521F4801141EA0251C3F81015704753
:101DB000400100202DE9F041984B1A68012A82B0B9
:101DC00000F083800024964B1A68012A00F08E8070
:101DD000944B1A68012A00F09B80934B1A68012AE1
:101DE00000F0A880914B1A68012A00F0B580904B52
:101DF0001A68012A00F0C2808E4B1A68012A00F08E
:101E0000CF808D4B1A68012A00F0DC808B4B1A685A
:101E1000012A00F0E980002614F0FF0F17D0E00738
:101E200000F11281A10700F11E81620700F12A81F1
:101E3000230700F13681E70600F14281A50600F193
:101E40004E81600600F15A81210600F1D980002CF4
:101E500002DB02B0BDE8F081794D4FF0FF33002482
:101E6000012795F944104A1CF3D0C9B221F0C000F3
:101E7000C340DB07EDD52B18890993F9243055F8B9
:101E80002380B8F1000F00F04981032907FA00FE12
:101E900000F04981830003F1A04316EA0E0FD3F846
:101EA0000027C2F3014209D1032AD2D1032900F04D
:101EB0003D81B8F1000FCCD0C047CAE7022AC8D193
:101EC0000329F6D14FF4403132E15E4AD2F804439F
:101ED00014F001043FF477AF00221A601B680093EE
:101EE000009B4F4B1A68012A7FF472AF554AD2F813
:101EF000042395077FF56CAF00221A601B680093DE
:101F0000009B484B1A68012A44F002047FF465AF35
:101F10004C4AD2F8042350077FF55FAF00221A60C5
:101F20001B680093009B404B1A68012A44F004048C
:101F30007FF458AF434AD2F8042311077FF552AF1C
:101F400000221A601B680093009B384B1A68012A14
:101F500044F008047FF44BAF3A4AD2F80423D20687
:101F60007FF545AF00221A601B680093009B304B41
:101F70001A68012A44F010047FF43EAF314AD2F8C7
:101F8000042397067FF538AF00221A601B68009380
:101F9000009B284B1A68012A44F020047FF431AFDB
:101FA000284AD2F8042356067FF52BAF00221A6088
:101FB0001B680093009B204B1A68012A44F04004E0
:101FC0007FF424AF1F4AD2F8042315067FF51EAF15
:101FD00000221A601B680093009B184B1A68012AA4
:101FE00044F080047FF417AF00221A601B6801934D
:101FF0004FF0A043019AD3F8106544F000440BE77A
:10200000104B0F4DD3F82C05D3F82C15EB69C0F30A
:102010000420C1F30141984719E700BF0061004067
:1020200004610040086100400C6100401061004004
:1020300014610040186100401C6100407C61004058
:102040004001002000600040464B474DD3F810058A
:10205000D3F810152B68C1F30141C0F30420984751
:10206000A1077FF5E2AE3F4B3F4DD3F81405D3F8FF
:1020700014156B68C0F30420C1F30141984762074F
:102080007FF5D6AE374B384DD3F81805D3F8181571
:10209000AB68C0F30420C1F30141984723077FF5E3
:1020A000CAAE304B304DD3F81C05D3F81C15EB6885
:1020B000C0F30420C1F301419847E7067FF5BEAEA7
:1020C000284B294DD3F82005D3F820152B69C0F3F0
:1020D0000420C1F301419847A5067FF5B2AE214B1C
:1020E000214DD3F82405D3F824156B69C0F30420DF
:1020F000C1F30141984760067FF5A6AE194B1A4D12
:10210000D3F82805D3F82815AB69C1F30141C0F312
:102110000420984721067FF59AAE71E703297FF4E2
:1021200098AE07FA00FE44EA0E04B3E64FF400311D
:10213000D3F8002722F44032C3F80027D3F8002751
:102140000A43C3F80027B8F1000F01D00321C047AC
:102150004FF0A0422346D2F8102596423FF479AEC4
:1021600016467EE60060004040010020034B1878D0
:1021700008B18520704701221A7070478C01002039
:102180002DE9F84F164DDFF85C90824600264FF09F
:10219000010803E0FFF77AFCA5431BD0F7B200204B
:1021A00008FA07F4FFF76AFC2C424FF0000006F132
:1021B0000106EFD0D9F8003014EA030BEAD11C4332
:1021C00058468AF80070C9F80040FFF75FFC58468F
:1021D000BDE8F88F4FF0040B5846BDE8F88F00BFFC
:1021E000FFFF0F008801002010B501248440C4F3D4
:1021F00013030BB9072010BD074B0020C3F8084597
:10220000FFF73CFC054A1368002023EA040414602D
:10221000FFF73CFC002010BD00F0014088010020C9
:1022200051B14AB10123834010B4C3F313042CB954
:1022300007205DF8044B70470E207047094C246856
:10224000234203D108205DF8044B7047C00000F121
:10225000804303F5F8330020C3F81015C3F81425A4
:10226000E7E700BF8801002001238340C3F3130286
:102270002AB1054A1268134201D108207047034A67
:102280000020C2F8043570478801002000F00140AA
:1022900001238340C3F313022AB1054A1268134293
:1022A00001D108207047034A0020C2F80835704762
:1022B0008801002000F001402DE9F84FDFF854902C
:1022C000824600263F254FF0010803E0FFF7DEFBC2
:1022D000A5431BD0F7B2002008FA07F4FFF7CEFBA6
:1022E0002C424FF0000006F10106EFD099F80030C3
:1022F00013EA040BEAD11C4358468AF8007089F8A7
:102300000040FFF7C3FB5846BDE8F88F0420BDE846
:10231000F88F00BF8D010020012238B502FA00F4C9
:10232000A30601D1072038BD0B4D2B78234201D1E4
:10233000082038BDC30003F1804303F5F8330020C3
:102340005A60FFF79BFB2B78002023EA04042C70D3
:10235000FFF79CFB002038BD8D010020012101FA10
:1023600000F30246980601D107207047054800781F
:10237000184201D108207047034B002043F8321067
:10238000704700BF8D01002000F0014038B50123E7
:102390008B409A0601D1072038BD0D4A12781A42A7
:1023A00001D1082038BD0C4605460020FFF766FB2A
:1023B000A10001F1804303F5F8330020D3F8002891
:1023C00022EA0505C3F80058FFF760FB002038BD7E
:1023D0008D01002038B501238B409A0601D10720DA
:1023E00038BD0D4A12781A4201D1082038BD0C467A
:1023F00005460020FFF742FBA10001F1804303F5F1
:10240000F8330020D3F800281543C3F80058FFF72D
:102410003DFB002038BD00BF8D0100202DE9F041BB
:1024200005792E4E4FEA450808EB050306EB8303BA
:102430001B7A13B10820BDE8F081002A47D004467A
:102440000F46002946D008EB05039B00F118F25017
:102450007B684B6063795BB1002318469A0002F5F4
:10246000A0722168885001336279DBB29A42F5D8B4
:102470002068F97840F30730FFF75EFB21687B782E
:10248000D1F8042503F0030322F003021343C1F83B
:1024900004352168BB78D1F8082503F0030322F046
:1024A00003021343C1F8083521683B78D1F81025A1
:1024B000454406EB850622F00F0203F00F030120CE
:1024C00013433072C1F810350020BDE8F0810720B9
:1024D000BDE8F081024F07EBC507B4E7900100208B
:1024E000D8270000036814491B0B5AB2520930B4B4
:1024F00020320124114D03F01F0304FA03F345F8C1
:10250000223003680022D3F80052C3F80022036887
:102510004FF0FF35C3F8085303681C61037903EBE0
:10252000430301EB83031C72037903EB430301EBC9
:1025300083010A7230BC70479001002000E100E086
:102540000368054A01211960037903EB430302EB99
:10255000830302221A72704790010020036801224F
:10256000DA60704710B44FF480348C4053B903687C
:10257000C3F80843036801F5A87143F821205DF80A
:10258000044B70470368C3F80443F3E7F0B40768EB
:102590009DF81060D7F8004240F201158D4024EA02
:1025A0000504C7F800420568D5F800422343C5F882
:1025B00000324FF480348C40036846B9C3F80843B6
:1025C000036801F5A87143F82120F0BC7047C3F8F7
:1025D0000443F5E701F150039B0002689BB210B47D
:1025E0000024D4504FF48033026803FA01F1C2F89A
:1025F00004135DF8044B704702684FF4803303FA0C
:1026000001F1C2F80813704710B5234B1A6822B1C4
:10261000224AD2F80423D40322D4214B1A6822B1CF
:102620001E4AD2F80423900323D41E4B1A6822B109
:102630001A4AD2F80423510324D41B4B1A6822B13E
:10264000164AD2F80423120300D410BD0021174A01
:102650001960136851684FF4A670BDE81040184720
:10266000124A00211960136851684FF4A07098470E
:10267000D3E70E4A00211960136851684FF4A27025
:102680009847D2E7094A00211960136851684FF44E
:10269000A4709847D1E700BF40810040008000400F
:1026A00044810040488100404C810040900100205E
:1026B00010B5234B1A6822B1224AD2F80423D4035E
:1026C00023D4214B1A6822B11E4AD2F80423900366
:1026D00024D41E4B1A6822B11A4AD2F8042351039B
:1026E00025D41B4B1A6822B1164AD2F804231203D0
:1026F00000D410BD174A0020D46811691860234621
:102700004FF4A670BDE810401847124A0020D46864
:10271000116918604FF4A070A047D2E70D4A00205D
:10272000D468116918604FF4A270A047D1E7094A34
:102730000020D468116918604FF4A470A047D0E756
:10274000409100400090004044910040489100407A
:102750004C910040900100200649074A074B9B1A04
:1027600003DD043BC858D050FBDCFEF741F8FDF711
:102770007DFE0000F427000000000020740000200F
:10278000FEE7FEE7FEE7FEE7FEE7FEE7FEE7FEE721
:10279000FEE7FEE7F8B500BFF8BC08BC9E467047F0
:1027A000F8B500BFF8BC08BC9E4670470400002086
:1027B00043000000110000001200000000000000B3
:1027C0000200000088130000A8010020D0270000AC
:1027D000009000400104000000000306000000001B
:0C27E000000000060000000000000000E7
:0827EC0080DCFF7F010000000A
:1027F40004000020000000000000000000000000B1
:1028040000000000000000000000000000000000C4
:1028140000000000B02700000000000000000000DD
:1028240000000000000000000000000000000000A4
:102834000000000000000000000000000000000094
:102844000000000000000000000000000000000084
:10285400000000000090D0032504000001040000E3
:042864000000000070
:040000030000275979
:00000001FF
